{
  "_format": "hh-sol-artifact-1",
  "contractName": "ReentrantVulnerable",
  "sourceName": "contracts/sublesson/ReentrantVulnerable.sol",
  "abi": [
    {
      "inputs": [
        {
          "internalType": "address",
          "name": "",
          "type": "address"
        }
      ],
      "name": "balances",
      "outputs": [
        {
          "internalType": "uint256",
          "name": "",
          "type": "uint256"
        }
      ],
      "stateMutability": "view",
      "type": "function"
    },
    {
      "inputs": [],
      "name": "deposit",
      "outputs": [],
      "stateMutability": "payable",
      "type": "function"
    },
    {
      "inputs": [],
      "name": "getBalance",
      "outputs": [
        {
          "internalType": "uint256",
          "name": "",
          "type": "uint256"
        }
      ],
      "stateMutability": "view",
      "type": "function"
    },
    {
      "inputs": [],
      "name": "withdraw",
      "outputs": [],
      "stateMutability": "nonpayable",
      "type": "function"
    }
  ],
  "bytecode": "0x608060405234801561001057600080fd5b50610649806100206000396000f3fe60806040526004361061003f5760003560e01c806312065fe01461004457806327e235e31461006f5780633ccfd60b146100ac578063d0e30db0146100c3575b600080fd5b34801561005057600080fd5b506100596100cd565b60405161006691906104d3565b60405180910390f35b34801561007b57600080fd5b506100966004803603810190610091919061041c565b610111565b6040516100a391906104d3565b60405180910390f35b3480156100b857600080fd5b506100c1610129565b005b6100cb610385565b005b60006100e36719695cb2145d5e3860c01b610404565b6100f76701271beb2f77fb0d60c01b610404565b61010b67e7a20f21bc3bc6d560c01b610404565b47905090565b60006020528060005260406000206000915090505481565b61013d6757d79cc432fa6be860c01b610404565b61015167107a37642a93c9e860c01b610404565b61016567e930eba0142c88f760c01b610404565b60008060003373ffffffffffffffffffffffffffffffffffffffff1673ffffffffffffffffffffffffffffffffffffffff1681526020019081526020016000205490506101bc679c22d6254d031f1860c01b610404565b6101d067b642b0c5237859a360c01b610404565b6101e467d36b651c26c1acc760c01b610404565b600081116101f157600080fd5b61020567e8526f2104c46ba060c01b610404565b61021967a52c37f9a90e1a2360c01b610404565b61022d676edf77a8d0df9a8d60c01b610404565b60003373ffffffffffffffffffffffffffffffffffffffff16826040516102539061049e565b60006040518083038185875af1925050503d8060008114610290576040519150601f19603f3d011682016040523d82523d6000602084013e610295565b606091505b505090506102ad67c7db09ee5ffd1a4560c01b610404565b6102c167687111023efdd41060c01b610404565b6102d56743b5a7ac36010d3860c01b610404565b80610315576040517f08c379a000000000000000000000000000000000000000000000000000000000815260040161030c906104b3565b60405180910390fd5b61032967f95a03f7fab60c2a60c01b610404565b61033d67ffd3d04b9c9c0b5a60c01b610404565b60008060003373ffffffffffffffffffffffffffffffffffffffff1673ffffffffffffffffffffffffffffffffffffffff168152602001908152602001600020819055505050565b61039967a60f30604c1c919660c01b610404565b6103ad673855b4218ffb22cb60c01b610404565b346000803373ffffffffffffffffffffffffffffffffffffffff1673ffffffffffffffffffffffffffffffffffffffff16815260200190815260200160002060008282546103fb919061050a565b92505081905550565b50565b600081359050610416816105fc565b92915050565b600060208284031215610432576104316105cb565b5b600061044084828501610407565b91505092915050565b60006104566014836104f9565b9150610461826105d0565b602082019050919050565b60006104796000836104ee565b9150610484826105f9565b600082019050919050565b61049881610592565b82525050565b60006104a98261046c565b9150819050919050565b600060208201905081810360008301526104cc81610449565b9050919050565b60006020820190506104e8600083018461048f565b92915050565b600081905092915050565b600082825260208201905092915050565b600061051582610592565b915061052083610592565b9250827fffffffffffffffffffffffffffffffffffffffffffffffffffffffffffffffff038211156105555761055461059c565b5b828201905092915050565b600061056b82610572565b9050919050565b600073ffffffffffffffffffffffffffffffffffffffff82169050919050565b6000819050919050565b7f4e487b7100000000000000000000000000000000000000000000000000000000600052601160045260246000fd5b600080fd5b7f4661696c656420746f2073656e64204574686572000000000000000000000000600082015250565b50565b61060581610560565b811461061057600080fd5b5056fea2646970667358221220811a4875e4715b8fb56e6025c5f247018e45184032dbde0637bbc2ce1a6d577a64736f6c63430008070033",
  "linkReferences": {},
  "deployedLinkReferences": {}
}