{
  "_format": "hh-sol-artifact-1",
  "contractName": "NFTAuction",
  "sourceName": "contracts/NFTAuction.sol",
  "abi": [
    {
      "inputs": [],
      "stateMutability": "nonpayable",
      "type": "constructor"
    },
    {
      "anonymous": false,
      "inputs": [
        {
          "indexed": false,
          "internalType": "address",
          "name": "nftContractAddress",
          "type": "address"
        },
        {
          "indexed": false,
          "internalType": "uint256",
          "name": "tokenId",
          "type": "uint256"
        },
        {
          "indexed": false,
          "internalType": "uint64",
          "name": "auctionEndPeriod",
          "type": "uint64"
        }
      ],
      "name": "AuctionPeriodUpdated",
      "type": "event"
    },
    {
      "anonymous": false,
      "inputs": [
        {
          "indexed": false,
          "internalType": "address",
          "name": "nftContractAddress",
          "type": "address"
        },
        {
          "indexed": false,
          "internalType": "uint256",
          "name": "tokenId",
          "type": "uint256"
        },
        {
          "indexed": false,
          "internalType": "address",
          "name": "auctionSettler",
          "type": "address"
        }
      ],
      "name": "AuctionSettled",
      "type": "event"
    },
    {
      "anonymous": false,
      "inputs": [
        {
          "indexed": false,
          "internalType": "address",
          "name": "nftContractAddress",
          "type": "address"
        },
        {
          "indexed": false,
          "internalType": "uint256",
          "name": "tokenId",
          "type": "uint256"
        },
        {
          "indexed": false,
          "internalType": "address",
          "name": "nftOwner",
          "type": "address"
        }
      ],
      "name": "AuctionWithdrawn",
      "type": "event"
    },
    {
      "anonymous": false,
      "inputs": [
        {
          "indexed": false,
          "internalType": "address",
          "name": "nftContractAddress",
          "type": "address"
        },
        {
          "indexed": false,
          "internalType": "uint256",
          "name": "tokenId",
          "type": "uint256"
        },
        {
          "indexed": false,
          "internalType": "address",
          "name": "bidder",
          "type": "address"
        },
        {
          "indexed": false,
          "internalType": "uint256",
          "name": "ethAmount",
          "type": "uint256"
        },
        {
          "indexed": false,
          "internalType": "address",
          "name": "erc20Token",
          "type": "address"
        },
        {
          "indexed": false,
          "internalType": "uint256",
          "name": "tokenAmount",
          "type": "uint256"
        }
      ],
      "name": "BidMade",
      "type": "event"
    },
    {
      "anonymous": false,
      "inputs": [
        {
          "indexed": false,
          "internalType": "address",
          "name": "nftContractAddress",
          "type": "address"
        },
        {
          "indexed": false,
          "internalType": "uint256",
          "name": "tokenId",
          "type": "uint256"
        },
        {
          "indexed": false,
          "internalType": "address",
          "name": "highestBidder",
          "type": "address"
        }
      ],
      "name": "BidWithdrawn",
      "type": "event"
    },
    {
      "anonymous": false,
      "inputs": [
        {
          "indexed": false,
          "internalType": "address",
          "name": "nftContractAddress",
          "type": "address"
        },
        {
          "indexed": false,
          "internalType": "uint256",
          "name": "tokenId",
          "type": "uint256"
        },
        {
          "indexed": false,
          "internalType": "uint128",
          "name": "newBuyNowPrice",
          "type": "uint128"
        }
      ],
      "name": "BuyNowPriceUpdated",
      "type": "event"
    },
    {
      "anonymous": false,
      "inputs": [
        {
          "indexed": false,
          "internalType": "address",
          "name": "nftContractAddress",
          "type": "address"
        },
        {
          "indexed": false,
          "internalType": "uint256",
          "name": "tokenId",
          "type": "uint256"
        }
      ],
      "name": "HighestBidTaken",
      "type": "event"
    },
    {
      "anonymous": false,
      "inputs": [
        {
          "indexed": false,
          "internalType": "address",
          "name": "nftContractAddress",
          "type": "address"
        },
        {
          "indexed": false,
          "internalType": "uint256",
          "name": "tokenId",
          "type": "uint256"
        },
        {
          "indexed": false,
          "internalType": "uint256",
          "name": "newMinPrice",
          "type": "uint256"
        }
      ],
      "name": "MinimumPriceUpdated",
      "type": "event"
    },
    {
      "anonymous": false,
      "inputs": [
        {
          "indexed": false,
          "internalType": "address",
          "name": "nftContractAddress",
          "type": "address"
        },
        {
          "indexed": false,
          "internalType": "uint256",
          "name": "tokenId",
          "type": "uint256"
        },
        {
          "indexed": false,
          "internalType": "address",
          "name": "nftSeller",
          "type": "address"
        },
        {
          "indexed": false,
          "internalType": "uint128",
          "name": "nftHighestBid",
          "type": "uint128"
        },
        {
          "indexed": false,
          "internalType": "address",
          "name": "nftHighestBidder",
          "type": "address"
        },
        {
          "indexed": false,
          "internalType": "address",
          "name": "nftRecipient",
          "type": "address"
        }
      ],
      "name": "NFTTransferredAndSellerPaid",
      "type": "event"
    },
    {
      "anonymous": false,
      "inputs": [
        {
          "indexed": false,
          "internalType": "address",
          "name": "nftContractAddress",
          "type": "address"
        },
        {
          "indexed": false,
          "internalType": "uint256",
          "name": "tokenId",
          "type": "uint256"
        },
        {
          "indexed": false,
          "internalType": "address",
          "name": "nftSeller",
          "type": "address"
        },
        {
          "indexed": false,
          "internalType": "address",
          "name": "erc20Token",
          "type": "address"
        },
        {
          "indexed": false,
          "internalType": "uint128",
          "name": "minPrice",
          "type": "uint128"
        },
        {
          "indexed": false,
          "internalType": "uint128",
          "name": "buyNowPrice",
          "type": "uint128"
        },
        {
          "indexed": false,
          "internalType": "uint32",
          "name": "auctionBidPeriod",
          "type": "uint32"
        },
        {
          "indexed": false,
          "internalType": "uint32",
          "name": "bidIncreasePercentage",
          "type": "uint32"
        },
        {
          "indexed": false,
          "internalType": "address[]",
          "name": "feeRecipients",
          "type": "address[]"
        },
        {
          "indexed": false,
          "internalType": "uint32[]",
          "name": "feePercentages",
          "type": "uint32[]"
        }
      ],
      "name": "NftAuctionCreated",
      "type": "event"
    },
    {
      "anonymous": false,
      "inputs": [
        {
          "indexed": false,
          "internalType": "address",
          "name": "nftContractAddress",
          "type": "address"
        },
        {
          "indexed": false,
          "internalType": "uint256",
          "name": "tokenId",
          "type": "uint256"
        },
        {
          "indexed": false,
          "internalType": "address",
          "name": "nftSeller",
          "type": "address"
        },
        {
          "indexed": false,
          "internalType": "address",
          "name": "erc20Token",
          "type": "address"
        },
        {
          "indexed": false,
          "internalType": "uint128",
          "name": "buyNowPrice",
          "type": "uint128"
        },
        {
          "indexed": false,
          "internalType": "address",
          "name": "whitelistedBuyer",
          "type": "address"
        },
        {
          "indexed": false,
          "internalType": "address[]",
          "name": "feeRecipients",
          "type": "address[]"
        },
        {
          "indexed": false,
          "internalType": "uint32[]",
          "name": "feePercentages",
          "type": "uint32[]"
        }
      ],
      "name": "SaleCreated",
      "type": "event"
    },
    {
      "anonymous": false,
      "inputs": [
        {
          "indexed": false,
          "internalType": "address",
          "name": "nftContractAddress",
          "type": "address"
        },
        {
          "indexed": false,
          "internalType": "uint256",
          "name": "tokenId",
          "type": "uint256"
        },
        {
          "indexed": false,
          "internalType": "address",
          "name": "newWhitelistedBuyer",
          "type": "address"
        }
      ],
      "name": "WhitelistedBuyerUpdated",
      "type": "event"
    },
    {
      "inputs": [
        {
          "internalType": "address",
          "name": "_nftContractAddress",
          "type": "address"
        },
        {
          "internalType": "uint256",
          "name": "_tokenId",
          "type": "uint256"
        },
        {
          "internalType": "address",
          "name": "_erc20Token",
          "type": "address"
        },
        {
          "internalType": "uint128",
          "name": "_minPrice",
          "type": "uint128"
        },
        {
          "internalType": "uint128",
          "name": "_buyNowPrice",
          "type": "uint128"
        },
        {
          "internalType": "address[]",
          "name": "_feeRecipients",
          "type": "address[]"
        },
        {
          "internalType": "uint32[]",
          "name": "_feePercentages",
          "type": "uint32[]"
        }
      ],
      "name": "createDefaultNftAuction",
      "outputs": [],
      "stateMutability": "nonpayable",
      "type": "function"
    },
    {
      "inputs": [
        {
          "internalType": "address",
          "name": "_nftContractAddress",
          "type": "address"
        },
        {
          "internalType": "uint256",
          "name": "_tokenId",
          "type": "uint256"
        },
        {
          "internalType": "address",
          "name": "_erc20Token",
          "type": "address"
        },
        {
          "internalType": "uint128",
          "name": "_minPrice",
          "type": "uint128"
        },
        {
          "internalType": "uint128",
          "name": "_buyNowPrice",
          "type": "uint128"
        },
        {
          "internalType": "uint32",
          "name": "_auctionBidPeriod",
          "type": "uint32"
        },
        {
          "internalType": "uint32",
          "name": "_bidIncreasePercentage",
          "type": "uint32"
        },
        {
          "internalType": "address[]",
          "name": "_feeRecipients",
          "type": "address[]"
        },
        {
          "internalType": "uint32[]",
          "name": "_feePercentages",
          "type": "uint32[]"
        }
      ],
      "name": "createNewNftAuction",
      "outputs": [],
      "stateMutability": "nonpayable",
      "type": "function"
    },
    {
      "inputs": [
        {
          "internalType": "address",
          "name": "_nftContractAddress",
          "type": "address"
        },
        {
          "internalType": "uint256",
          "name": "_tokenId",
          "type": "uint256"
        },
        {
          "internalType": "address",
          "name": "_erc20Token",
          "type": "address"
        },
        {
          "internalType": "uint128",
          "name": "_buyNowPrice",
          "type": "uint128"
        },
        {
          "internalType": "address",
          "name": "_whitelistedBuyer",
          "type": "address"
        },
        {
          "internalType": "address[]",
          "name": "_feeRecipients",
          "type": "address[]"
        },
        {
          "internalType": "uint32[]",
          "name": "_feePercentages",
          "type": "uint32[]"
        }
      ],
      "name": "createSale",
      "outputs": [],
      "stateMutability": "nonpayable",
      "type": "function"
    },
    {
      "inputs": [],
      "name": "defaultAuctionBidPeriod",
      "outputs": [
        {
          "internalType": "uint32",
          "name": "",
          "type": "uint32"
        }
      ],
      "stateMutability": "view",
      "type": "function"
    },
    {
      "inputs": [],
      "name": "defaultBidIncreasePercentage",
      "outputs": [
        {
          "internalType": "uint32",
          "name": "",
          "type": "uint32"
        }
      ],
      "stateMutability": "view",
      "type": "function"
    },
    {
      "inputs": [
        {
          "internalType": "address",
          "name": "_nftContractAddress",
          "type": "address"
        },
        {
          "internalType": "uint256",
          "name": "_tokenId",
          "type": "uint256"
        },
        {
          "internalType": "address",
          "name": "_erc20Token",
          "type": "address"
        },
        {
          "internalType": "uint128",
          "name": "_tokenAmount",
          "type": "uint128"
        }
      ],
      "name": "makeBid",
      "outputs": [],
      "stateMutability": "payable",
      "type": "function"
    },
    {
      "inputs": [
        {
          "internalType": "address",
          "name": "_nftContractAddress",
          "type": "address"
        },
        {
          "internalType": "uint256",
          "name": "_tokenId",
          "type": "uint256"
        },
        {
          "internalType": "address",
          "name": "_erc20Token",
          "type": "address"
        },
        {
          "internalType": "uint128",
          "name": "_tokenAmount",
          "type": "uint128"
        },
        {
          "internalType": "address",
          "name": "_nftRecipient",
          "type": "address"
        }
      ],
      "name": "makeCustomBid",
      "outputs": [],
      "stateMutability": "payable",
      "type": "function"
    },
    {
      "inputs": [],
      "name": "maximumMinPricePercentage",
      "outputs": [
        {
          "internalType": "uint32",
          "name": "",
          "type": "uint32"
        }
      ],
      "stateMutability": "view",
      "type": "function"
    },
    {
      "inputs": [],
      "name": "minimumSettableIncreasePercentage",
      "outputs": [
        {
          "internalType": "uint32",
          "name": "",
          "type": "uint32"
        }
      ],
      "stateMutability": "view",
      "type": "function"
    },
    {
      "inputs": [
        {
          "internalType": "address",
          "name": "",
          "type": "address"
        },
        {
          "internalType": "uint256",
          "name": "",
          "type": "uint256"
        }
      ],
      "name": "nftContractAuctions",
      "outputs": [
        {
          "internalType": "uint32",
          "name": "bidIncreasePercentage",
          "type": "uint32"
        },
        {
          "internalType": "uint32",
          "name": "auctionBidPeriod",
          "type": "uint32"
        },
        {
          "internalType": "uint64",
          "name": "auctionEnd",
          "type": "uint64"
        },
        {
          "internalType": "uint128",
          "name": "minPrice",
          "type": "uint128"
        },
        {
          "internalType": "uint128",
          "name": "buyNowPrice",
          "type": "uint128"
        },
        {
          "internalType": "uint128",
          "name": "nftHighestBid",
          "type": "uint128"
        },
        {
          "internalType": "address",
          "name": "nftHighestBidder",
          "type": "address"
        },
        {
          "internalType": "address",
          "name": "nftSeller",
          "type": "address"
        },
        {
          "internalType": "address",
          "name": "whitelistedBuyer",
          "type": "address"
        },
        {
          "internalType": "address",
          "name": "nftRecipient",
          "type": "address"
        },
        {
          "internalType": "address",
          "name": "ERC20Token",
          "type": "address"
        }
      ],
      "stateMutability": "view",
      "type": "function"
    },
    {
      "inputs": [
        {
          "internalType": "address",
          "name": "_nftContractAddress",
          "type": "address"
        },
        {
          "internalType": "uint256",
          "name": "_tokenId",
          "type": "uint256"
        }
      ],
      "name": "ownerOfNFT",
      "outputs": [
        {
          "internalType": "address",
          "name": "",
          "type": "address"
        }
      ],
      "stateMutability": "view",
      "type": "function"
    },
    {
      "inputs": [
        {
          "internalType": "address",
          "name": "_nftContractAddress",
          "type": "address"
        },
        {
          "internalType": "uint256",
          "name": "_tokenId",
          "type": "uint256"
        }
      ],
      "name": "settleAuction",
      "outputs": [],
      "stateMutability": "nonpayable",
      "type": "function"
    },
    {
      "inputs": [
        {
          "internalType": "address",
          "name": "_nftContractAddress",
          "type": "address"
        },
        {
          "internalType": "uint256",
          "name": "_tokenId",
          "type": "uint256"
        }
      ],
      "name": "takeHighestBid",
      "outputs": [],
      "stateMutability": "nonpayable",
      "type": "function"
    },
    {
      "inputs": [
        {
          "internalType": "address",
          "name": "_nftContractAddress",
          "type": "address"
        },
        {
          "internalType": "uint256",
          "name": "_tokenId",
          "type": "uint256"
        },
        {
          "internalType": "uint128",
          "name": "_newBuyNowPrice",
          "type": "uint128"
        }
      ],
      "name": "updateBuyNowPrice",
      "outputs": [],
      "stateMutability": "nonpayable",
      "type": "function"
    },
    {
      "inputs": [
        {
          "internalType": "address",
          "name": "_nftContractAddress",
          "type": "address"
        },
        {
          "internalType": "uint256",
          "name": "_tokenId",
          "type": "uint256"
        },
        {
          "internalType": "uint128",
          "name": "_newMinPrice",
          "type": "uint128"
        }
      ],
      "name": "updateMinimumPrice",
      "outputs": [],
      "stateMutability": "nonpayable",
      "type": "function"
    },
    {
      "inputs": [
        {
          "internalType": "address",
          "name": "_nftContractAddress",
          "type": "address"
        },
        {
          "internalType": "uint256",
          "name": "_tokenId",
          "type": "uint256"
        },
        {
          "internalType": "address",
          "name": "_newWhitelistedBuyer",
          "type": "address"
        }
      ],
      "name": "updateWhitelistedBuyer",
      "outputs": [],
      "stateMutability": "nonpayable",
      "type": "function"
    },
    {
      "inputs": [],
      "name": "withdrawAllFailedCredits",
      "outputs": [],
      "stateMutability": "nonpayable",
      "type": "function"
    },
    {
      "inputs": [
        {
          "internalType": "address",
          "name": "_nftContractAddress",
          "type": "address"
        },
        {
          "internalType": "uint256",
          "name": "_tokenId",
          "type": "uint256"
        }
      ],
      "name": "withdrawAuction",
      "outputs": [],
      "stateMutability": "nonpayable",
      "type": "function"
    },
    {
      "inputs": [
        {
          "internalType": "address",
          "name": "_nftContractAddress",
          "type": "address"
        },
        {
          "internalType": "uint256",
          "name": "_tokenId",
          "type": "uint256"
        }
      ],
      "name": "withdrawBid",
      "outputs": [],
      "stateMutability": "nonpayable",
      "type": "function"
    }
  ],
  "bytecode": "0x60806040523480156200001157600080fd5b506200002e673728a6548a2486ee60c01b6200012f60201b60201c565b6200004a67154190f3fbfa0def60c01b6200012f60201b60201c565b6064600260006101000a81548163ffffffff021916908363ffffffff1602179055506200008867d20f20d4ce1235ab60c01b6200012f60201b60201c565b620151806002600c6101000a81548163ffffffff021916908363ffffffff160217905550620000c867af86450c3a8f86a760c01b6200012f60201b60201c565b6064600260046101000a81548163ffffffff021916908363ffffffff1602179055506200010667a09f7e4d1de68f3760c01b6200012f60201b60201c565b611f40600260086101000a81548163ffffffff021916908363ffffffff16021790555062000132565b50565b61ad2080620001426000396000f3fe6080604052600436106101145760003560e01c8063848e5c77116100a0578063cd4eda1c11610064578063cd4eda1c14610363578063ebea60251461038e578063f45671f1146103b7578063f583bac7146103e0578063f7f829a41461040957610114565b8063848e5c77146102b35780639041e273146102dc5780639c0b996614610305578063b6ad691414610330578063c24d5a5c1461034757610114565b80632f9c9576116100e75780632f9c9576146101f15780633d87d5fb1461021a5780634cb8ef5b146102455780635138b08c1461026e578063565c51721461029757610114565b8063041fa0b814610119578063076b73ac14610160578063186779d51461018957806320950fc6146101b4575b600080fd5b34801561012557600080fd5b50610140600480360381019061013b91906191c6565b610432565b6040516101579b9a9998979695949392919061a297565b60405180910390f35b34801561016c57600080fd5b5061018760048036038101906101829190619206565b6105c1565b005b34801561019557600080fd5b5061019e610b5c565b6040516101ab919061a27c565b60405180910390f35b3480156101c057600080fd5b506101db60048036038101906101d691906191c6565b610b72565b6040516101e89190619b9b565b60405180910390f35b3480156101fd57600080fd5b50610218600480360381019061021391906195f1565b610d19565b005b34801561022657600080fd5b5061022f611541565b60405161023c919061a27c565b60405180910390f35b34801561025157600080fd5b5061026c600480360381019061026791906191c6565b611557565b005b34801561027a57600080fd5b50610295600480360381019061029091906191c6565b611932565b005b6102b160048036038101906102ac91906192c0565b611acd565b005b3480156102bf57600080fd5b506102da60048036038101906102d591906191c6565b611f8e565b005b3480156102e857600080fd5b5061030360048036038101906102fe9190619415565b612288565b005b34801561031157600080fd5b5061031a6127cc565b604051610327919061a27c565b60405180910390f35b34801561033c57600080fd5b506103456127e2565b005b610361600480360381019061035c9190619259565b612a7c565b005b34801561036f57600080fd5b50610378612d85565b604051610385919061a27c565b60405180910390f35b34801561039a57600080fd5b506103b560048036038101906103b091906191c6565b612d9b565b005b3480156103c357600080fd5b506103de60048036038101906103d9919061933b565b612f8e565b005b3480156103ec57600080fd5b50610407600480360381019061040291906194ef565b613704565b005b34801561041557600080fd5b50610430600480360381019061042b91906195f1565b613e57565b005b6000602052816000526040600020602052806000526040600020600091509150508060000160009054906101000a900463ffffffff16908060000160049054906101000a900463ffffffff16908060000160089054906101000a900467ffffffffffffffff16908060000160109054906101000a90046fffffffffffffffffffffffffffffffff16908060010160009054906101000a90046fffffffffffffffffffffffffffffffff16908060010160109054906101000a90046fffffffffffffffffffffffffffffffff16908060020160009054906101000a900473ffffffffffffffffffffffffffffffffffffffff16908060030160009054906101000a900473ffffffffffffffffffffffffffffffffffffffff16908060040160009054906101000a900473ffffffffffffffffffffffffffffffffffffffff16908060050160009054906101000a900473ffffffffffffffffffffffffffffffffffffffff16908060060160009054906101000a900473ffffffffffffffffffffffffffffffffffffffff1690508b565b6105d56770b760aa943275be60c01b6144a3565b82826105eb674f88bc9f189bb52560c01b6144a3565b6105ff6754608e956ac1699b60c01b6144a3565b610613673976ad2c365cd72560c01b6144a3565b610627673d20f293e48a755760c01b6144a3565b6000808373ffffffffffffffffffffffffffffffffffffffff1673ffffffffffffffffffffffffffffffffffffffff168152602001908152602001600020600082815260200190815260200160002060030160009054906101000a900473ffffffffffffffffffffffffffffffffffffffff1673ffffffffffffffffffffffffffffffffffffffff163373ffffffffffffffffffffffffffffffffffffffff1614610707576040517f08c379a00000000000000000000000000000000000000000000000000000000081526004016106fe9061a001565b60405180910390fd5b61071b678da003a43964cd1760c01b6144a3565b61072f6732508be675259cdd60c01b6144a3565b610743679b858e8d0bd2cdcf60c01b6144a3565b610757672c9c018645d4051760c01b6144a3565b61076b676602e2e763f0cc5d60c01b6144a3565b61077f677e3d293510eba4cb60c01b6144a3565b610793673cd73c6dce49998860c01b6144a3565b61079d85856144a6565b6107dc576040517f08c379a00000000000000000000000000000000000000000000000000000000081526004016107d39061a181565b60405180910390fd5b6107f067d94bfd96752dfa8360c01b6144a3565b610804678d7223774279416760c01b6144a3565b826000808773ffffffffffffffffffffffffffffffffffffffff1673ffffffffffffffffffffffffffffffffffffffff168152602001908152602001600020600086815260200190815260200160002060040160006101000a81548173ffffffffffffffffffffffffffffffffffffffff021916908373ffffffffffffffffffffffffffffffffffffffff1602179055506108a967df3d68fb712247dd60c01b6144a3565b6108bd678e20ae70bae12d7960c01b6144a3565b60008060008773ffffffffffffffffffffffffffffffffffffffff1673ffffffffffffffffffffffffffffffffffffffff168152602001908152602001600020600086815260200190815260200160002060020160009054906101000a900473ffffffffffffffffffffffffffffffffffffffff169050610948677f25117e2a0ae4f760c01b6144a3565b61095c6787885707a98d2c8860c01b6144a3565b60008060008873ffffffffffffffffffffffffffffffffffffffff1673ffffffffffffffffffffffffffffffffffffffff168152602001908152602001600020600087815260200190815260200160002060010160109054906101000a90046fffffffffffffffffffffffffffffffff1690506109e3676ca2a2d0795bba4760c01b6144a3565b6109f7677ca448e395c868c460c01b6144a3565b6000816fffffffffffffffffffffffffffffffff16118015610a4557508473ffffffffffffffffffffffffffffffffffffffff168273ffffffffffffffffffffffffffffffffffffffff1614155b15610adb57610a5e672432bcf79b1c3b7560c01b6144a3565b610a7267461476de0a45c41c60c01b6144a3565b610a86672f2cefa707031a1860c01b6144a3565b610a9087876145fc565b610aa467f51b4919624105e260c01b6144a3565b610ab867a6ab6cfecbdd4c2f60c01b6144a3565b610ad6878784846fffffffffffffffffffffffffffffffff166147fe565b610af0565b610aef67b7a912fd112fc65260c01b6144a3565b5b610b0467c63950af173afc0860c01b6144a3565b610b18670637bdab1dce7a6460c01b6144a3565b7f7502912f483c1fb3f89bf8664bea10db517c2093040d379e78e169e067523646878787604051610b4b93929190619c4d565b60405180910390a150505050505050565b6002600c9054906101000a900463ffffffff1681565b6000610b8867ab67d0570324326660c01b6144a3565b610b9c67031e706796de7d8760c01b6144a3565b610bb0674d91210d20e2e83660c01b6144a3565b60008060008573ffffffffffffffffffffffffffffffffffffffff1673ffffffffffffffffffffffffffffffffffffffff168152602001908152602001600020600084815260200190815260200160002060030160009054906101000a900473ffffffffffffffffffffffffffffffffffffffff169050610c3b673f5fa4232f37b06560c01b6144a3565b610c4f679c43bac2484222cc60c01b6144a3565b610c6367919d7750e4d0038e60c01b6144a3565b600073ffffffffffffffffffffffffffffffffffffffff168173ffffffffffffffffffffffffffffffffffffffff161415610cd3576040517f08c379a0000000000000000000000000000000000000000000000000000000008152600401610cca90619fe1565b60405180910390fd5b610ce76776bcb4e33889a08660c01b6144a3565b610cfb67af284b50d52f91f260c01b6144a3565b610d0f6767bbe5e4cc467f1660c01b6144a3565b8091505092915050565b610d2d679945e100df1b336c60c01b6144a3565b8282610d43674f88bc9f189bb52560c01b6144a3565b610d576754608e956ac1699b60c01b6144a3565b610d6b673976ad2c365cd72560c01b6144a3565b610d7f673d20f293e48a755760c01b6144a3565b6000808373ffffffffffffffffffffffffffffffffffffffff1673ffffffffffffffffffffffffffffffffffffffff168152602001908152602001600020600082815260200190815260200160002060030160009054906101000a900473ffffffffffffffffffffffffffffffffffffffff1673ffffffffffffffffffffffffffffffffffffffff163373ffffffffffffffffffffffffffffffffffffffff1614610e5f576040517f08c379a0000000000000000000000000000000000000000000000000000000008152600401610e569061a001565b60405180910390fd5b610e73678da003a43964cd1760c01b6144a3565b610e876732508be675259cdd60c01b6144a3565b610e9b672d1602c1841c388060c01b6144a3565b610eaf676c2aacbf8cd0de4860c01b6144a3565b8484610ec567d6ba9f3bbada28c160c01b6144a3565b610ed96751ee2795e137b38c60c01b6144a3565b610eed67755a00565e5ddabf60c01b6144a3565b610f016702e0e1e2d63f347a60c01b6144a3565b610f0b8282614b69565b15610f4b576040517f08c379a0000000000000000000000000000000000000000000000000000000008152600401610f4290619f61565b60405180910390fd5b610f5f67265d8cf347d0cf5160c01b6144a3565b610f736758ab07219319bea860c01b6144a3565b610f8767f7c6f256e3df353e60c01b6144a3565b610f9b6761c4d2d745c8b46a60c01b6144a3565b8686610fb16771bc1e8e3aca7f0660c01b6144a3565b610fc567e71eaaca0f20804f60c01b6144a3565b610fd96775e7403cc906fa8c60c01b6144a3565b610fed678d3dd435a5d31e6460c01b6144a3565b610ff782826144a6565b15611037576040517f08c379a000000000000000000000000000000000000000000000000000000000815260040161102e90619fa1565b60405180910390fd5b61104b67cd1141a05c54283b60c01b6144a3565b61105f672aecbdc5f149d9e060c01b6144a3565b61107367a17e17f24040532760c01b6144a3565b611087675b885a7881694d8f60c01b6144a3565b866fffffffffffffffffffffffffffffffff166110ae671b8257c79bfb64fd60c01b6144a3565b6110c2674bbb8d421d06de2960c01b6144a3565b6110d667c51b2eddd1e5210b60c01b6144a3565b6110ea67b9266720d93607b160c01b6144a3565b6000811161112d576040517f08c379a000000000000000000000000000000000000000000000000000000000815260040161112490619f81565b60405180910390fd5b61114167de2d6b04b861f31560c01b6144a3565b611155675b7c264b9550a7a360c01b6144a3565b611169679e6d90e58c5f50b360c01b6144a3565b61117d6753f622173d1e5f9a60c01b6144a3565b6000808b73ffffffffffffffffffffffffffffffffffffffff1673ffffffffffffffffffffffffffffffffffffffff16815260200190815260200160002060008a815260200190815260200160002060010160009054906101000a90046fffffffffffffffffffffffffffffffff16886112016728816f0d48f35d2e60c01b6144a3565b6112156782914abca32f0f1660c01b6144a3565b61122967216704f822748ad660c01b6144a3565b61123d670b3188a4083de0b360c01b6144a3565b6000826fffffffffffffffffffffffffffffffff1614801561126f575061126e6783067300cd6a570960c01b614cff565b5b806112db5750806fffffffffffffffffffffffffffffffff166112bc836fffffffffffffffffffffffffffffffff16600260089054906101000a900463ffffffff1663ffffffff16614d0a565b101580156112da57506112d9675853d4a448b3c90e60c01b614cff565b5b5b61131a576040517f08c379a00000000000000000000000000000000000000000000000000000000081526004016113119061a081565b60405180910390fd5b61132e67d333571a3698f89c60c01b6144a3565b61134267c4c869c9e4aeba3960c01b6144a3565b6113566797fa072e9871c40d60c01b6144a3565b61136a67d7c3073603e9ded360c01b6144a3565b61137e675665c5ae79496ad160c01b6144a3565b896000808e73ffffffffffffffffffffffffffffffffffffffff1673ffffffffffffffffffffffffffffffffffffffff16815260200190815260200160002060008d815260200190815260200160002060000160106101000a8154816fffffffffffffffffffffffffffffffff02191690836fffffffffffffffffffffffffffffffff16021790555061141b67bd030c4713ce966e60c01b6144a3565b61142f671fe37def6356479d60c01b6144a3565b7fdcf27af4c564afa0c536dd1fa48e5fef0d9833378a1bddacc95922b902ebfc328c8c8c60405161146293929190619eb3565b60405180910390a161147e677a92eb0a4a10ab1060c01b6144a3565b61149267fec4b44ee3057e9660c01b6144a3565b61149c8c8c614b69565b1561151e576114b5678603f792045a5de960c01b6144a3565b6114c967dd7e64b9fe686fd160c01b6144a3565b6114dd67fd700c2051d25a2460c01b6144a3565b6114e78c8c614d69565b6114fb67c7301024856e901560c01b6144a3565b61150f67595a0118569a709860c01b6144a3565b6115198c8c615256565b611533565b611532676f5d8b9230b133f160c01b6144a3565b5b505050505050505050505050565b600260049054906101000a900463ffffffff1681565b61156b6733f1f540e60b55a860c01b6144a3565b818161158167d6ba9f3bbada28c160c01b6144a3565b6115956751ee2795e137b38c60c01b6144a3565b6115a967755a00565e5ddabf60c01b6144a3565b6115bd6702e0e1e2d63f347a60c01b6144a3565b6115c78282614b69565b15611607576040517f08c379a00000000000000000000000000000000000000000000000000000000081526004016115fe90619f61565b60405180910390fd5b61161b67265d8cf347d0cf5160c01b6144a3565b61162f6758ab07219319bea860c01b6144a3565b611643674888bb584459f3f160c01b6144a3565b61165767809c2773c7978b2860c01b6144a3565b61166b67f04a7b6de31a0db560c01b6144a3565b61167f670cb68c04a5f8616160c01b6144a3565b60008060008673ffffffffffffffffffffffffffffffffffffffff1673ffffffffffffffffffffffffffffffffffffffff168152602001908152602001600020600085815260200190815260200160002060020160009054906101000a900473ffffffffffffffffffffffffffffffffffffffff16905061170a67c429151583e9179e60c01b6144a3565b61171e6794a27303bff5c88460c01b6144a3565b61173267a3db7034ed92754960c01b6144a3565b8073ffffffffffffffffffffffffffffffffffffffff163373ffffffffffffffffffffffffffffffffffffffff16146117a0576040517f08c379a00000000000000000000000000000000000000000000000000000000081526004016117979061a0e1565b60405180910390fd5b6117b46766e622448e67a9c260c01b6144a3565b6117c8679977c65a69ce7a1560c01b6144a3565b6117dc672fac5484d1139fce60c01b6144a3565b60008060008773ffffffffffffffffffffffffffffffffffffffff1673ffffffffffffffffffffffffffffffffffffffff168152602001908152602001600020600086815260200190815260200160002060010160109054906101000a90046fffffffffffffffffffffffffffffffff16905061186367b9985312a304216c60c01b6144a3565b611877672f25715c9113f76160c01b6144a3565b61188186866145fc565b61189567d83f7429072780bb60c01b6144a3565b6118a967f2ec37a3e4bc8c8560c01b6144a3565b6118c7868684846fffffffffffffffffffffffffffffffff166147fe565b6118db67ad61a8370f6f67bb60c01b6144a3565b6118ef67cc3a9ffede1ff68460c01b6144a3565b7f10d9bddf66f639dd3c5a6ad2db5ae3102c2b468dfb90a4b0da219435f24a970d86863360405161192293929190619c4d565b60405180910390a1505050505050565b6119466728d1fbc87555a94360c01b6144a3565b818161195c674847b34b5b6b94d060c01b6144a3565b61197067fed0b2407594e0d660c01b6144a3565b6119846765892927a0333a7860c01b6144a3565b611998672ffd9f8331fe9ecf60c01b6144a3565b6119a282826153de565b156119e2576040517f08c379a00000000000000000000000000000000000000000000000000000000081526004016119d99061a141565b60405180910390fd5b6119f667e5075072ff36838660c01b6144a3565b611a0a67c69b6d192713c17860c01b6144a3565b611a1e6705b555ab680e87da60c01b6144a3565b611a326746dce6f54ea8d58960c01b6144a3565b611a46677c13fbdbce08180e60c01b6144a3565b611a5a6754f274f7f83ea5d260c01b6144a3565b611a648484615512565b611a7867f28a50d98059b80b60c01b6144a3565b611a8c67a6d4abda2db0459c60c01b6144a3565b7fe6b94748c5d6e0d188a0fcb9b7f2973b01fc0095627f1ec5accdcd9d2e65ca36848433604051611abf93929190619c4d565b60405180910390a150505050565b611ae16783200bda343d742360c01b6144a3565b8484611af76760dd90d19c45eceb60c01b6144a3565b611b0b678770640b0ebaa2b060c01b6144a3565b611b1f67c236f0cc6b32dcdb60c01b6144a3565b611b336758dfd18d9e3d8fcf60c01b6144a3565b611b3d82826153de565b611b7c576040517f08c379a0000000000000000000000000000000000000000000000000000000008152600401611b739061a041565b60405180910390fd5b611b90670d9e0af3439e3bf060c01b6144a3565b611ba467c1e8cd804e60d17c60c01b6144a3565b611bb867a75cd48ea7e7929560c01b6144a3565b611bcc67551d216aa61d2bea60c01b6144a3565b82611be167796b998cdb2d8bb060c01b6144a3565b611bf5674227ac02bbb55d4e60c01b6144a3565b611c09679f438bb27064829160c01b6144a3565b611c1d67b16209a057497d7b60c01b6144a3565b600073ffffffffffffffffffffffffffffffffffffffff168173ffffffffffffffffffffffffffffffffffffffff161415611c8d576040517f08c379a0000000000000000000000000000000000000000000000000000000008152600401611c849061a201565b60405180910390fd5b611ca1678107d86857bc2f3f60c01b6144a3565b611cb567212184d1f4812e2360c01b6144a3565b611cc9672bad6390f662e35f60c01b6144a3565b611cdd67c004fb171c2862ba60c01b6144a3565b8787611cf36752cda5f2056d9b4b60c01b6144a3565b611d076742f283e8d8c26f4e60c01b6144a3565b611d1b675e056abfa4f66df060c01b6144a3565b611d2f679e11713089ebb6b260c01b6144a3565b611d3982826158e7565b158015611d565750611d556779a0e5e52903038960c01b614cff565b5b80611e1a57503373ffffffffffffffffffffffffffffffffffffffff166000808473ffffffffffffffffffffffffffffffffffffffff1673ffffffffffffffffffffffffffffffffffffffff168152602001908152602001600020600083815260200190815260200160002060040160009054906101000a900473ffffffffffffffffffffffffffffffffffffffff1673ffffffffffffffffffffffffffffffffffffffff16148015611e195750611e1867cbc7d138a7b7f7cb60c01b614cff565b5b5b611e59576040517f08c379a0000000000000000000000000000000000000000000000000000000008152600401611e5090619f21565b60405180910390fd5b611e6d6728523d2ebc8f4c7360c01b6144a3565b611e81672d6177b7ea40135c60c01b6144a3565b611e9567b0b16a69aeb0893860c01b6144a3565b611ea9670a41ceefbe9a4f3a60c01b6144a3565b611ebd6729416847f6ee2ccb60c01b6144a3565b856000808c73ffffffffffffffffffffffffffffffffffffffff1673ffffffffffffffffffffffffffffffffffffffff16815260200190815260200160002060008b815260200190815260200160002060050160006101000a81548173ffffffffffffffffffffffffffffffffffffffff021916908373ffffffffffffffffffffffffffffffffffffffff160217905550611f62670505ddee911a6bb760c01b6144a3565b611f76673d95b5e812aaab4160c01b6144a3565b611f828a8a8a8a6159d0565b50505050505050505050565b611fa2677343679f7515505360c01b6144a3565b8181611fb8674f88bc9f189bb52560c01b6144a3565b611fcc6754608e956ac1699b60c01b6144a3565b611fe0673976ad2c365cd72560c01b6144a3565b611ff4673d20f293e48a755760c01b6144a3565b6000808373ffffffffffffffffffffffffffffffffffffffff1673ffffffffffffffffffffffffffffffffffffffff168152602001908152602001600020600082815260200190815260200160002060030160009054906101000a900473ffffffffffffffffffffffffffffffffffffffff1673ffffffffffffffffffffffffffffffffffffffff163373ffffffffffffffffffffffffffffffffffffffff16146120d4576040517f08c379a00000000000000000000000000000000000000000000000000000000081526004016120cb9061a001565b60405180910390fd5b6120e8678da003a43964cd1760c01b6144a3565b6120fc6732508be675259cdd60c01b6144a3565b6121106714daf3311bebb25f60c01b6144a3565b61212467af449c12d65bca8360c01b6144a3565b612138672d0f9d50e5f8524060c01b6144a3565b61214c67b5f8b8d88d9331d660c01b6144a3565b61216067b562af4ebc6b63a960c01b6144a3565b61216a8484615e20565b6121a9576040517f08c379a00000000000000000000000000000000000000000000000000000000081526004016121a09061a161565b60405180910390fd5b6121bd67eba5e5162805f84c60c01b6144a3565b6121d16716104af1fd3e735360c01b6144a3565b6121e5672b0a3fd3c517cecf60c01b6144a3565b6121ef8484614d69565b612203673270485cd1d0065260c01b6144a3565b61221767e20c84f0a0a5d3cb60c01b6144a3565b6122218484615512565b612235677b33659592afb95960c01b6144a3565b61224967cbe0382caffc8ec460c01b6144a3565b7f711f4eae05533b90c24ff0ae762d6e9e1ef1b2c85d4c484a2913c5201bcbb7c9848460405161227a929190619c24565b60405180910390a150505050565b61229c6730d6d3098fbd12e260c01b6144a3565b86866122b267f8e671990c1fb38a60c01b6144a3565b6122c667d41cd6d8f0c9711460c01b6144a3565b6122da674fca0b1fb7005d1b60c01b6144a3565b6122ee67f208e99f5392268a60c01b6144a3565b3373ffffffffffffffffffffffffffffffffffffffff166000808473ffffffffffffffffffffffffffffffffffffffff1673ffffffffffffffffffffffffffffffffffffffff168152602001908152602001600020600083815260200190815260200160002060030160009054906101000a900473ffffffffffffffffffffffffffffffffffffffff1673ffffffffffffffffffffffffffffffffffffffff1614156123cf576040517f08c379a00000000000000000000000000000000000000000000000000000000081526004016123c69061a0c1565b60405180910390fd5b6123e36763e19f877c2529b460c01b6144a3565b6123f767a1fb8581f9d0529e60c01b6144a3565b61240b675276654fb6b27d0860c01b6144a3565b600073ffffffffffffffffffffffffffffffffffffffff166000808473ffffffffffffffffffffffffffffffffffffffff1673ffffffffffffffffffffffffffffffffffffffff168152602001908152602001600020600083815260200190815260200160002060030160009054906101000a900473ffffffffffffffffffffffffffffffffffffffff1673ffffffffffffffffffffffffffffffffffffffff1614612642576124c567b5ac5dd1fc4cf62260c01b6144a3565b6124d96764faf6d53dc718f960c01b6144a3565b6124ed67b8221193150ab41160c01b6144a3565b6125016760f95f3f1ebbc7fd60c01b6144a3565b8173ffffffffffffffffffffffffffffffffffffffff16636352211e826040518263ffffffff1660e01b815260040161253a919061a261565b60206040518083038186803b15801561255257600080fd5b505afa158015612566573d6000803e3d6000fd5b505050506040513d601f19601f8201168201806040525081019061258a9190619199565b73ffffffffffffffffffffffffffffffffffffffff163373ffffffffffffffffffffffffffffffffffffffff16146125f7576040517f08c379a00000000000000000000000000000000000000000000000000000000081526004016125ee9061a061565b60405180910390fd5b61260b678d1bb9d1009b4b0960c01b6144a3565b61261f67b492554308f2031b60c01b6144a3565b61263367fdb24f86c324d17260c01b6144a3565b61263d8282615eea565b612657565b61265667ad3ec2bee5fc7f7860c01b6144a3565b5b61266b67326c78bb8211771e60c01b6144a3565b61267f67c2f92c3bae0fb65d60c01b6144a3565b61269367bd6714b47574ea0b60c01b6144a3565b856fffffffffffffffffffffffffffffffff166126ba671b8257c79bfb64fd60c01b6144a3565b6126ce674bbb8d421d06de2960c01b6144a3565b6126e267c51b2eddd1e5210b60c01b6144a3565b6126f667b9266720d93607b160c01b6144a3565b60008111612739576040517f08c379a000000000000000000000000000000000000000000000000000000000815260040161273090619f81565b60405180910390fd5b61274d67de2d6b04b861f31560c01b6144a3565b612761675b7c264b9550a7a360c01b6144a3565b6127756722b60788f573c61860c01b6144a3565b612789671ebf97b45eef904460c01b6144a3565b61279d6783d9124d93a3d5ec60c01b6144a3565b6127b167c28485efbd2e98fc60c01b6144a3565b6127c08a8a8a8a8a8a8a6163ca565b50505050505050505050565b600260009054906101000a900463ffffffff1681565b6127f667f8bca257788c936360c01b6144a3565b61280a671a60c3539aea8a7460c01b6144a3565b61281e673b933c008dc830b660c01b6144a3565b6000600160003373ffffffffffffffffffffffffffffffffffffffff1673ffffffffffffffffffffffffffffffffffffffff168152602001908152602001600020549050612876679de39fe04f73936960c01b6144a3565b61288a677d2102e30e69dd2b60c01b6144a3565b61289e67bac3b8f4f6b4832260c01b6144a3565b60008114156128e2576040517f08c379a00000000000000000000000000000000000000000000000000000000081526004016128d99061a0a1565b60405180910390fd5b6128f667e0acf55a485839cc60c01b6144a3565b61290a671445a664ef5b0cba60c01b6144a3565b6000600160003373ffffffffffffffffffffffffffffffffffffffff1673ffffffffffffffffffffffffffffffffffffffff1681526020019081526020016000208190555061296367661f4fa0c5ac52ad60c01b6144a3565b61297767a0b108146b9a236f60c01b6144a3565b60003373ffffffffffffffffffffffffffffffffffffffff1682614e20906040516129a190619b86565b600060405180830381858888f193505050503d80600081146129df576040519150601f19603f3d011682016040523d82523d6000602084013e6129e4565b606091505b505090506129fc679fdc60743990f9f260c01b6144a3565b612a1067a756f1143168edd260c01b6144a3565b612a2467f26b30818e15156660c01b6144a3565b80612a64576040517f08c379a0000000000000000000000000000000000000000000000000000000008152600401612a5b9061a221565b60405180910390fd5b612a7867e129b78f9f8fe22e60c01b6144a3565b5050565b612a90672d8494be6888f4aa60c01b6144a3565b8383612aa66760dd90d19c45eceb60c01b6144a3565b612aba678770640b0ebaa2b060c01b6144a3565b612ace67c236f0cc6b32dcdb60c01b6144a3565b612ae26758dfd18d9e3d8fcf60c01b6144a3565b612aec82826153de565b612b2b576040517f08c379a0000000000000000000000000000000000000000000000000000000008152600401612b229061a041565b60405180910390fd5b612b3f670d9e0af3439e3bf060c01b6144a3565b612b5367c1e8cd804e60d17c60c01b6144a3565b612b6767220c4b21069141b860c01b6144a3565b612b7b678c5b837938c6733a60c01b6144a3565b8585612b916752cda5f2056d9b4b60c01b6144a3565b612ba56742f283e8d8c26f4e60c01b6144a3565b612bb9675e056abfa4f66df060c01b6144a3565b612bcd679e11713089ebb6b260c01b6144a3565b612bd782826158e7565b158015612bf45750612bf36779a0e5e52903038960c01b614cff565b5b80612cb857503373ffffffffffffffffffffffffffffffffffffffff166000808473ffffffffffffffffffffffffffffffffffffffff1673ffffffffffffffffffffffffffffffffffffffff168152602001908152602001600020600083815260200190815260200160002060040160009054906101000a900473ffffffffffffffffffffffffffffffffffffffff1673ffffffffffffffffffffffffffffffffffffffff16148015612cb75750612cb667cbc7d138a7b7f7cb60c01b614cff565b5b5b612cf7576040517f08c379a0000000000000000000000000000000000000000000000000000000008152600401612cee90619f21565b60405180910390fd5b612d0b6728523d2ebc8f4c7360c01b6144a3565b612d1f672d6177b7ea40135c60c01b6144a3565b612d3367707c5d014d69d1b460c01b6144a3565b612d47676e7712e57055f96660c01b6144a3565b612d5b676c9955891a6fcc2860c01b6144a3565b612d6f67d6c9021078b8ee5760c01b6144a3565b612d7b888888886159d0565b5050505050505050565b600260089054906101000a900463ffffffff1681565b612daf67337d1704c3c2e4ba60c01b6144a3565b612dc3677e496f5bdc76628b60c01b6144a3565b612dd7675fc867ee2cbe7b8460c01b6144a3565b612deb676d6db06017210a9c60c01b6144a3565b3373ffffffffffffffffffffffffffffffffffffffff168273ffffffffffffffffffffffffffffffffffffffff16636352211e836040518263ffffffff1660e01b8152600401612e3b919061a261565b60206040518083038186803b158015612e5357600080fd5b505afa158015612e67573d6000803e3d6000fd5b505050506040513d601f19601f82011682018060405250810190612e8b9190619199565b73ffffffffffffffffffffffffffffffffffffffff1614612ee1576040517f08c379a0000000000000000000000000000000000000000000000000000000008152600401612ed89061a241565b60405180910390fd5b612ef5671a903e0932416ceb60c01b6144a3565b612f09673183bb8dbb640e0360c01b6144a3565b612f1d674a714ea11409466f60c01b6144a3565b612f278282615eea565b612f3b67bc77fa705232ff7f60c01b6144a3565b612f4f6719aa3296796fba6760c01b6144a3565b7fec19f84af4aad6523d37faa19e243c77717842cca9bf492dc5379830cac958d0828233604051612f8293929190619c4d565b60405180910390a15050565b612fa267ef59f64fbd09170160c01b6144a3565b8686612fb867f8e671990c1fb38a60c01b6144a3565b612fcc67d41cd6d8f0c9711460c01b6144a3565b612fe0674fca0b1fb7005d1b60c01b6144a3565b612ff467f208e99f5392268a60c01b6144a3565b3373ffffffffffffffffffffffffffffffffffffffff166000808473ffffffffffffffffffffffffffffffffffffffff1673ffffffffffffffffffffffffffffffffffffffff168152602001908152602001600020600083815260200190815260200160002060030160009054906101000a900473ffffffffffffffffffffffffffffffffffffffff1673ffffffffffffffffffffffffffffffffffffffff1614156130d5576040517f08c379a00000000000000000000000000000000000000000000000000000000081526004016130cc9061a0c1565b60405180910390fd5b6130e96763e19f877c2529b460c01b6144a3565b6130fd67a1fb8581f9d0529e60c01b6144a3565b613111675276654fb6b27d0860c01b6144a3565b600073ffffffffffffffffffffffffffffffffffffffff166000808473ffffffffffffffffffffffffffffffffffffffff1673ffffffffffffffffffffffffffffffffffffffff168152602001908152602001600020600083815260200190815260200160002060030160009054906101000a900473ffffffffffffffffffffffffffffffffffffffff1673ffffffffffffffffffffffffffffffffffffffff1614613348576131cb67b5ac5dd1fc4cf62260c01b6144a3565b6131df6764faf6d53dc718f960c01b6144a3565b6131f367b8221193150ab41160c01b6144a3565b6132076760f95f3f1ebbc7fd60c01b6144a3565b8173ffffffffffffffffffffffffffffffffffffffff16636352211e826040518263ffffffff1660e01b8152600401613240919061a261565b60206040518083038186803b15801561325857600080fd5b505afa15801561326c573d6000803e3d6000fd5b505050506040513d601f19601f820116820180604052508101906132909190619199565b73ffffffffffffffffffffffffffffffffffffffff163373ffffffffffffffffffffffffffffffffffffffff16146132fd576040517f08c379a00000000000000000000000000000000000000000000000000000000081526004016132f49061a061565b60405180910390fd5b613311678d1bb9d1009b4b0960c01b6144a3565b61332567b492554308f2031b60c01b6144a3565b61333967fdb24f86c324d17260c01b6144a3565b6133438282615eea565b61335d565b61335c67ad3ec2bee5fc7f7860c01b6144a3565b5b61337167326c78bb8211771e60c01b6144a3565b6133856740979cc93677560e60c01b6144a3565b61339967a2fb2ba35678995560c01b6144a3565b856fffffffffffffffffffffffffffffffff166133c0671b8257c79bfb64fd60c01b6144a3565b6133d4674bbb8d421d06de2960c01b6144a3565b6133e867c51b2eddd1e5210b60c01b6144a3565b6133fc67b9266720d93607b160c01b6144a3565b6000811161343f576040517f08c379a000000000000000000000000000000000000000000000000000000000815260040161343690619f81565b60405180910390fd5b61345367de2d6b04b861f31560c01b6144a3565b613467675b7c264b9550a7a360c01b6144a3565b61347b67e43e071360c8aa2d60c01b6144a3565b61348f67c2b1f3f973952fdc60c01b6144a3565b6134a3671b2b0dc560d16dfc60c01b6144a3565b6134b767f4b13e1c3e0660a360c01b6144a3565b6134c68a8a8a8a8a8a8a6164d3565b6134da672d8b49b3f359b0b560c01b6144a3565b6134ee673f5676ddacd2231b60c01b6144a3565b7fb4cb1faa7b4f2b837334e4a12fb94a1cfc320c32b70dd31e113d1795b9d0f0568a8a338b8b8b8b8b60405161352b989796959493929190619c84565b60405180910390a1613547675589918c01dd41ae60c01b6144a3565b61355b67b118b41a050b6b5d60c01b6144a3565b6135658a8a615e20565b156136e35761357e67f681846bee4c8ebb60c01b6144a3565b61359267db3fd53fe709abf460c01b6144a3565b6135a667847eacff39a6fca560c01b6144a3565b6135b08a8a616b80565b15613697576135c9674e6179d851e091ab60c01b6144a3565b6135dd675d9bef7f2eff38db60c01b6144a3565b6135f1676f83ba14f4beeec060c01b6144a3565b6135fb8a8a616c1a565b1561367d576136146704339e38a91c5ca660c01b6144a3565b61362867d8fb46cd983a579e60c01b6144a3565b61363c67bc22a16fd5d79d9e60c01b6144a3565b6136468a8a614d69565b61365a676f378ce6173b167660c01b6144a3565b61366e67b1fadf2565729a0060c01b6144a3565b6136788a8a615512565b613692565b613691675242617568586b6b60c01b6144a3565b5b6136de565b6136ab67a3ac774ab78e3d2360c01b6144a3565b6136bf67d1e2c64b98f4444d60c01b6144a3565b6136d367c2619b1d7298299160c01b6144a3565b6136dd8a8a616daf565b5b6136f8565b6136f7679628e122f47925d360c01b6144a3565b5b50505050505050505050565b61371867f11c1b37f53120d360c01b6144a3565b888861372e67f8e671990c1fb38a60c01b6144a3565b61374267d41cd6d8f0c9711460c01b6144a3565b613756674fca0b1fb7005d1b60c01b6144a3565b61376a67f208e99f5392268a60c01b6144a3565b3373ffffffffffffffffffffffffffffffffffffffff166000808473ffffffffffffffffffffffffffffffffffffffff1673ffffffffffffffffffffffffffffffffffffffff168152602001908152602001600020600083815260200190815260200160002060030160009054906101000a900473ffffffffffffffffffffffffffffffffffffffff1673ffffffffffffffffffffffffffffffffffffffff16141561384b576040517f08c379a00000000000000000000000000000000000000000000000000000000081526004016138429061a0c1565b60405180910390fd5b61385f6763e19f877c2529b460c01b6144a3565b61387367a1fb8581f9d0529e60c01b6144a3565b613887675276654fb6b27d0860c01b6144a3565b600073ffffffffffffffffffffffffffffffffffffffff166000808473ffffffffffffffffffffffffffffffffffffffff1673ffffffffffffffffffffffffffffffffffffffff168152602001908152602001600020600083815260200190815260200160002060030160009054906101000a900473ffffffffffffffffffffffffffffffffffffffff1673ffffffffffffffffffffffffffffffffffffffff1614613abe5761394167b5ac5dd1fc4cf62260c01b6144a3565b6139556764faf6d53dc718f960c01b6144a3565b61396967b8221193150ab41160c01b6144a3565b61397d6760f95f3f1ebbc7fd60c01b6144a3565b8173ffffffffffffffffffffffffffffffffffffffff16636352211e826040518263ffffffff1660e01b81526004016139b6919061a261565b60206040518083038186803b1580156139ce57600080fd5b505afa1580156139e2573d6000803e3d6000fd5b505050506040513d601f19601f82011682018060405250810190613a069190619199565b73ffffffffffffffffffffffffffffffffffffffff163373ffffffffffffffffffffffffffffffffffffffff1614613a73576040517f08c379a0000000000000000000000000000000000000000000000000000000008152600401613a6a9061a061565b60405180910390fd5b613a87678d1bb9d1009b4b0960c01b6144a3565b613a9b67b492554308f2031b60c01b6144a3565b613aaf67fdb24f86c324d17260c01b6144a3565b613ab98282615eea565b613ad3565b613ad267ad3ec2bee5fc7f7860c01b6144a3565b5b613ae767326c78bb8211771e60c01b6144a3565b613afb67611cde59ce853d6460c01b6144a3565b613b0f678ee203060625ee8960c01b6144a3565b876fffffffffffffffffffffffffffffffff16613b36671b8257c79bfb64fd60c01b6144a3565b613b4a674bbb8d421d06de2960c01b6144a3565b613b5e67c51b2eddd1e5210b60c01b6144a3565b613b7267b9266720d93607b160c01b6144a3565b60008111613bb5576040517f08c379a0000000000000000000000000000000000000000000000000000000008152600401613bac90619f81565b60405180910390fd5b613bc967de2d6b04b861f31560c01b6144a3565b613bdd675b7c264b9550a7a360c01b6144a3565b613bf167ec97ea4ce4ccd02660c01b6144a3565b613c0567e863a35540c3e36c60c01b6144a3565b85613c1a671a508f9905280c1060c01b6144a3565b613c2e67d3aaec431be989b860c01b6144a3565b613c4267719ecbdd2111d10260c01b6144a3565b613c5667fccb4279601f60cb60c01b6144a3565b600260049054906101000a900463ffffffff1663ffffffff168163ffffffff161015613cb7576040517f08c379a0000000000000000000000000000000000000000000000000000000008152600401613cae90619f41565b60405180910390fd5b613ccb670286a61ba56cde1d60c01b6144a3565b613cdf672f96a0bbc566d59860c01b6144a3565b613cf3672ac0de53f4e6332c60c01b6144a3565b613d07671d488f63394680d660c01b6144a3565b613d1b679f873b10ded19f2c60c01b6144a3565b876000808f73ffffffffffffffffffffffffffffffffffffffff1673ffffffffffffffffffffffffffffffffffffffff16815260200190815260200160002060008e815260200190815260200160002060000160046101000a81548163ffffffff021916908363ffffffff160217905550613da0676736a2925cbc24ea60c01b6144a3565b866000808f73ffffffffffffffffffffffffffffffffffffffff1673ffffffffffffffffffffffffffffffffffffffff16815260200190815260200160002060008e815260200190815260200160002060000160006101000a81548163ffffffff021916908363ffffffff160217905550613e2567f381c781413f61c060c01b6144a3565b613e39673c0a8e9627be472f60c01b6144a3565b613e488d8d8d8d8d8b8b6163ca565b50505050505050505050505050565b613e6b67f934b8d99f104d8e60c01b6144a3565b8282613e81674f88bc9f189bb52560c01b6144a3565b613e956754608e956ac1699b60c01b6144a3565b613ea9673976ad2c365cd72560c01b6144a3565b613ebd673d20f293e48a755760c01b6144a3565b6000808373ffffffffffffffffffffffffffffffffffffffff1673ffffffffffffffffffffffffffffffffffffffff168152602001908152602001600020600082815260200190815260200160002060030160009054906101000a900473ffffffffffffffffffffffffffffffffffffffff1673ffffffffffffffffffffffffffffffffffffffff163373ffffffffffffffffffffffffffffffffffffffff1614613f9d576040517f08c379a0000000000000000000000000000000000000000000000000000000008152600401613f949061a001565b60405180910390fd5b613fb1678da003a43964cd1760c01b6144a3565b613fc56732508be675259cdd60c01b6144a3565b613fd96760b6720b976a54a660c01b6144a3565b613fed67234c9076eadf05ae60c01b6144a3565b826fffffffffffffffffffffffffffffffff16614014671b8257c79bfb64fd60c01b6144a3565b614028674bbb8d421d06de2960c01b6144a3565b61403c67c51b2eddd1e5210b60c01b6144a3565b61405067b9266720d93607b160c01b6144a3565b60008111614093576040517f08c379a000000000000000000000000000000000000000000000000000000000815260040161408a90619f81565b60405180910390fd5b6140a767de2d6b04b861f31560c01b6144a3565b6140bb675b7c264b9550a7a360c01b6144a3565b6140cf67c98eaada1ba6fdb260c01b6144a3565b6140e367c726bc669a986a2360c01b6144a3565b836000808873ffffffffffffffffffffffffffffffffffffffff1673ffffffffffffffffffffffffffffffffffffffff168152602001908152602001600020600087815260200190815260200160002060000160109054906101000a90046fffffffffffffffffffffffffffffffff166141676728816f0d48f35d2e60c01b6144a3565b61417b6782914abca32f0f1660c01b6144a3565b61418f67216704f822748ad660c01b6144a3565b6141a3670b3188a4083de0b360c01b6144a3565b6000826fffffffffffffffffffffffffffffffff161480156141d557506141d46783067300cd6a570960c01b614cff565b5b806142415750806fffffffffffffffffffffffffffffffff16614222836fffffffffffffffffffffffffffffffff16600260089054906101000a900463ffffffff1663ffffffff16614d0a565b10158015614240575061423f675853d4a448b3c90e60c01b614cff565b5b5b614280576040517f08c379a00000000000000000000000000000000000000000000000000000000081526004016142779061a081565b60405180910390fd5b61429467d333571a3698f89c60c01b6144a3565b6142a867c4c869c9e4aeba3960c01b6144a3565b6142bc675008516b51d5719360c01b6144a3565b6142d0672ce967fcd5d24fa960c01b6144a3565b6142e467c7b6f6842ced188260c01b6144a3565b856000808a73ffffffffffffffffffffffffffffffffffffffff1673ffffffffffffffffffffffffffffffffffffffff168152602001908152602001600020600089815260200190815260200160002060010160006101000a8154816fffffffffffffffffffffffffffffffff02191690836fffffffffffffffffffffffffffffffff160217905550614381674f50a1495bb98ab860c01b6144a3565b6143956786f3e0a5234c2be460c01b6144a3565b7fcc66420416a999e685e3938d2c6252ed709db214d0435f13da0b1e5339bcac768888886040516143c893929190619e7c565b60405180910390a16143e467473b25366da55ae560c01b6144a3565b6143f867abf109b009db927960c01b6144a3565b6144028888616c1a565b156144845761441b67e38629de023bc85660c01b6144a3565b61442f674e0ec777f58482d260c01b6144a3565b61444367a1a67abcbe4fbed860c01b6144a3565b61444d8888614d69565b61446167b68693724baca32160c01b6144a3565b6144756738dcd3a646e4180660c01b6144a3565b61447f8888615512565b614499565b614498670211e38ce20e143460c01b6144a3565b5b5050505050505050565b50565b60006144bc6715bea24f5c11a1c460c01b6144a3565b6144d067ea92a628951ca55260c01b6144a3565b6144e46791c471b40655a60e60c01b6144a3565b60008060008573ffffffffffffffffffffffffffffffffffffffff1673ffffffffffffffffffffffffffffffffffffffff168152602001908152602001600020600084815260200190815260200160002060010160009054906101000a90046fffffffffffffffffffffffffffffffff166fffffffffffffffffffffffffffffffff161180156145f4575060008060008573ffffffffffffffffffffffffffffffffffffffff1673ffffffffffffffffffffffffffffffffffffffff168152602001908152602001600020600084815260200190815260200160002060000160109054906101000a90046fffffffffffffffffffffffffffffffff166fffffffffffffffffffffffffffffffff16145b905092915050565b614610676f89ace37f3151dc60c01b6144a3565b61462467d1520a5d8863ed8460c01b6144a3565b60008060008473ffffffffffffffffffffffffffffffffffffffff1673ffffffffffffffffffffffffffffffffffffffff168152602001908152602001600020600083815260200190815260200160002060020160006101000a81548173ffffffffffffffffffffffffffffffffffffffff021916908373ffffffffffffffffffffffffffffffffffffffff1602179055506146ca67093f3f6c376e824560c01b6144a3565b60008060008473ffffffffffffffffffffffffffffffffffffffff1673ffffffffffffffffffffffffffffffffffffffff168152602001908152602001600020600083815260200190815260200160002060010160106101000a8154816fffffffffffffffffffffffffffffffff02191690836fffffffffffffffffffffffffffffffff1602179055506147686750dcee0743f89fed60c01b6144a3565b60008060008473ffffffffffffffffffffffffffffffffffffffff1673ffffffffffffffffffffffffffffffffffffffff168152602001908152602001600020600083815260200190815260200160002060050160006101000a81548173ffffffffffffffffffffffffffffffffffffffff021916908373ffffffffffffffffffffffffffffffffffffffff1602179055505050565b61481267a87579e20fa18ae660c01b6144a3565b61482667c9dc40006fa0a68660c01b6144a3565b61483a67ad8fcb352b54155d60c01b6144a3565b60008060008673ffffffffffffffffffffffffffffffffffffffff1673ffffffffffffffffffffffffffffffffffffffff168152602001908152602001600020600085815260200190815260200160002060060160009054906101000a900473ffffffffffffffffffffffffffffffffffffffff1690506148c56726e891e33b8110b160c01b6144a3565b6148d967629663d189a5a25460c01b6144a3565b6148e281616f7b565b156149b6576148fb677509fc85300bdf3860c01b6144a3565b61490f6771259940490ed28b60c01b6144a3565b61492367d7ea032cbfd0f42960c01b6144a3565b8073ffffffffffffffffffffffffffffffffffffffff1663a9059cbb84846040518363ffffffff1660e01b815260040161495e929190619c24565b602060405180830381600087803b15801561497857600080fd5b505af115801561498c573d6000803e3d6000fd5b505050506040513d601f19601f820116820180604052508101906149b09190619644565b50614b62565b6149ca670b92061539071ec960c01b6144a3565b6149de67a7898571baa2de8e60c01b6144a3565b6149f267a2bf729df1d92ddf60c01b6144a3565b60008373ffffffffffffffffffffffffffffffffffffffff1683614e2090604051614a1c90619b86565b600060405180830381858888f193505050503d8060008114614a5a576040519150601f19603f3d011682016040523d82523d6000602084013e614a5f565b606091505b50509050614a7767cef2d990ec3f135660c01b6144a3565b614a8b6715e3e739b536e6db60c01b6144a3565b80614b4b57614aa46747f3d3dacfb62b1460c01b6144a3565b614ab8676cfa059cace79e1260c01b6144a3565b82600160008673ffffffffffffffffffffffffffffffffffffffff1673ffffffffffffffffffffffffffffffffffffffff16815260200190815260200160002054614b03919061a44d565b600160008673ffffffffffffffffffffffffffffffffffffffff1673ffffffffffffffffffffffffffffffffffffffff16815260200190815260200160002081905550614b60565b614b5f67f6a2d57f1e1e494060c01b6144a3565b5b505b5050505050565b6000614b7f6715f722bb0b67ce3760c01b6144a3565b614b9367e3be00ab652674a960c01b6144a3565b614ba76714e29a7e37a9111760c01b6144a3565b60008060008573ffffffffffffffffffffffffffffffffffffffff1673ffffffffffffffffffffffffffffffffffffffff168152602001908152602001600020600084815260200190815260200160002060000160109054906101000a90046fffffffffffffffffffffffffffffffff169050614c2e671a7221d2634b89ac60c01b6144a3565b614c4267ecb134d110acc41860c01b6144a3565b6000816fffffffffffffffffffffffffffffffff16118015614cf65750806fffffffffffffffffffffffffffffffff166000808673ffffffffffffffffffffffffffffffffffffffff1673ffffffffffffffffffffffffffffffffffffffff168152602001908152602001600020600085815260200190815260200160002060010160109054906101000a90046fffffffffffffffffffffffffffffffff166fffffffffffffffffffffffffffffffff1610155b91505092915050565b600060019050919050565b6000614d20677f1bf29afa5e946a60c01b6144a3565b614d346729ba9734f0263a0b60c01b6144a3565b614d4867bb8a73f7d5533ff660c01b6144a3565b6127108284614d57919061a5c7565b614d61919061a54c565b905092915050565b614d7d6740ae3dc850c59b8f60c01b6144a3565b614d916717a887d5f4f98da960c01b6144a3565b614da567d9590383b301a91360c01b6144a3565b60008060008473ffffffffffffffffffffffffffffffffffffffff1673ffffffffffffffffffffffffffffffffffffffff168152602001908152602001600020600083815260200190815260200160002060030160009054906101000a900473ffffffffffffffffffffffffffffffffffffffff169050614e3067fc229dc9c40d9a0460c01b6144a3565b614e446704429fbc8f19875260c01b6144a3565b8073ffffffffffffffffffffffffffffffffffffffff168373ffffffffffffffffffffffffffffffffffffffff16636352211e846040518263ffffffff1660e01b8152600401614e94919061a261565b60206040518083038186803b158015614eac57600080fd5b505afa158015614ec0573d6000803e3d6000fd5b505050506040513d601f19601f82011682018060405250810190614ee49190619199565b73ffffffffffffffffffffffffffffffffffffffff1614156150f657614f14673f7c6e6553b6dce760c01b6144a3565b614f28679d854993a64cc4f460c01b6144a3565b614f3c6718bb4e205767d30960c01b6144a3565b8273ffffffffffffffffffffffffffffffffffffffff166323b872dd8230856040518463ffffffff1660e01b8152600401614f7993929190619bed565b600060405180830381600087803b158015614f9357600080fd5b505af1158015614fa7573d6000803e3d6000fd5b50505050614fbf6776d2b8f6ba8ee5ed60c01b6144a3565b614fd367834a20e3fd834aaf60c01b6144a3565b614fe76779eb0cf78a6569c160c01b6144a3565b3073ffffffffffffffffffffffffffffffffffffffff168373ffffffffffffffffffffffffffffffffffffffff16636352211e846040518263ffffffff1660e01b8152600401615037919061a261565b60206040518083038186803b15801561504f57600080fd5b505afa158015615063573d6000803e3d6000fd5b505050506040513d601f19601f820116820180604052508101906150879190619199565b73ffffffffffffffffffffffffffffffffffffffff16146150dd576040517f08c379a00000000000000000000000000000000000000000000000000000000081526004016150d49061a021565b60405180910390fd5b6150f167de8a6dba61d702c660c01b6144a3565b615251565b61510a67d5af5d1854c6110060c01b6144a3565b61511e67cad264edce34ba1f60c01b6144a3565b61513267c2d4d6d06b73936260c01b6144a3565b6151466714c7d8f1606b40cc60c01b6144a3565b3073ffffffffffffffffffffffffffffffffffffffff168373ffffffffffffffffffffffffffffffffffffffff16636352211e846040518263ffffffff1660e01b8152600401615196919061a261565b60206040518083038186803b1580156151ae57600080fd5b505afa1580156151c2573d6000803e3d6000fd5b505050506040513d601f19601f820116820180604052508101906151e69190619199565b73ffffffffffffffffffffffffffffffffffffffff161461523c576040517f08c379a00000000000000000000000000000000000000000000000000000000081526004016152339061a121565b60405180910390fd5b615250671ea565a4bc8dfe4060c01b6144a3565b5b505050565b61526a67e102c5d86d8695c660c01b6144a3565b61527e671e9c8677bd2de7fe60c01b6144a3565b426152898383616ff1565b63ffffffff16615299919061a4dd565b6000808473ffffffffffffffffffffffffffffffffffffffff1673ffffffffffffffffffffffffffffffffffffffff168152602001908152602001600020600083815260200190815260200160002060000160086101000a81548167ffffffffffffffff021916908367ffffffffffffffff16021790555061532567f8bd97cfaf58ec8060c01b6144a3565b6153396703fc6ace526e983c60c01b6144a3565b7fc1ce6cc1337b95ed3c849e00bffc0d93e89e5e80cc5d198db838140827ac759482826000808673ffffffffffffffffffffffffffffffffffffffff1673ffffffffffffffffffffffffffffffffffffffff168152602001908152602001600020600085815260200190815260200160002060000160089054906101000a900467ffffffffffffffff166040516153d293929190619eea565b60405180910390a15050565b60006153f467fc38b5f812630e6c60c01b6144a3565b615408677585acf5a176d87060c01b6144a3565b61541c67ece71dd6902a017d60c01b6144a3565b60008060008573ffffffffffffffffffffffffffffffffffffffff1673ffffffffffffffffffffffffffffffffffffffff168152602001908152602001600020600084815260200190815260200160002060000160089054906101000a900467ffffffffffffffff16905061549b6708b849a5943e067f60c01b6144a3565b6154af67e19c242a98f8af9760c01b6144a3565b60008167ffffffffffffffff161480156154d957506154d8671e65c2a8db483c3660c01b614cff565b5b8061550957508067ffffffffffffffff164210801561550857506155076725d91473adafbe9860c01b614cff565b5b5b91505092915050565b61552667ea6ddfd2545a638960c01b6144a3565b61553a67080818d332b8366b60c01b6144a3565b61554e67af51b18bd8abcccf60c01b6144a3565b60008060008473ffffffffffffffffffffffffffffffffffffffff1673ffffffffffffffffffffffffffffffffffffffff168152602001908152602001600020600083815260200190815260200160002060030160009054906101000a900473ffffffffffffffffffffffffffffffffffffffff1690506155d9678b53a6721ac5e18860c01b6144a3565b6155ed676f64537052b6190560c01b6144a3565b60008060008573ffffffffffffffffffffffffffffffffffffffff1673ffffffffffffffffffffffffffffffffffffffff168152602001908152602001600020600084815260200190815260200160002060020160009054906101000a900473ffffffffffffffffffffffffffffffffffffffff16905061567867be6140f7245861c860c01b6144a3565b61568c67dc4c6739b15514f260c01b6144a3565b6000615698858561716b565b90506156ae67fa84a16c8c26501860c01b6144a3565b6156c267bb99503d104f0a6560c01b6144a3565b60008060008773ffffffffffffffffffffffffffffffffffffffff1673ffffffffffffffffffffffffffffffffffffffff168152602001908152602001600020600086815260200190815260200160002060010160109054906101000a90046fffffffffffffffffffffffffffffffff16905061574967b00cbf824518727d60c01b6144a3565b61575d67cfdde631a352b3ce60c01b6144a3565b61576786866145fc565b61577b6704ba4e8160f587e860c01b6144a3565b61578f67041fe108c18bf13560c01b6144a3565b6157ad868686846fffffffffffffffffffffffffffffffff1661737b565b6157c167646c76c613c0115d60c01b6144a3565b6157d567beadc01625c8a50c60c01b6144a3565b8573ffffffffffffffffffffffffffffffffffffffff166323b872dd3084886040518463ffffffff1660e01b815260040161581293929190619bed565b600060405180830381600087803b15801561582c57600080fd5b505af1158015615840573d6000803e3d6000fd5b5050505061585867b3b50a6f8cdecebb60c01b6144a3565b61586c67f9600916cfcf694460c01b6144a3565b6158768686615eea565b61588a676ebfcec612b8765260c01b6144a3565b61589e67a537d7366c11e92860c01b6144a3565b7f8df77c988c9550e96e43a66277f716818a74ed2188cdacb49d790623e6f225718686868487876040516158d796959493929190619dba565b60405180910390a1505050505050565b60006158fd677050c4310f6fa9e260c01b6144a3565b6159116705514098f4b642d460c01b6144a3565b61592567f34aa20c54bae37560c01b6144a3565b600073ffffffffffffffffffffffffffffffffffffffff166000808573ffffffffffffffffffffffffffffffffffffffff1673ffffffffffffffffffffffffffffffffffffffff168152602001908152602001600020600084815260200190815260200160002060040160009054906101000a900473ffffffffffffffffffffffffffffffffffffffff1673ffffffffffffffffffffffffffffffffffffffff161415905092915050565b6159e46714414e7f571be7e360c01b6144a3565b83836159fa67ac92b02086222b0e60c01b6144a3565b615a0e678bfdffc29784ecf560c01b6144a3565b615a22677486f07333c1b54860c01b6144a3565b615a3667d2f23c615540597e60c01b6144a3565b6000808373ffffffffffffffffffffffffffffffffffffffff1673ffffffffffffffffffffffffffffffffffffffff168152602001908152602001600020600082815260200190815260200160002060030160009054906101000a900473ffffffffffffffffffffffffffffffffffffffff1673ffffffffffffffffffffffffffffffffffffffff163373ffffffffffffffffffffffffffffffffffffffff161415615b17576040517f08c379a0000000000000000000000000000000000000000000000000000000008152600401615b0e9061a1e1565b60405180910390fd5b615b2b67f2d7add15acb915d60c01b6144a3565b615b3f6769274e104934f7c460c01b6144a3565b615b53677c3a3b84591a492d60c01b6144a3565b615b67672289c23553bf6df160c01b6144a3565b85858585615b7f67b8dc8b1d325d4b7360c01b6144a3565b615b93676488d009d3752f8160c01b6144a3565b615ba76744afdf01b16089d960c01b6144a3565b615bbb675556ffb36a63e22460c01b6144a3565b615bc784848484617645565b615c06576040517f08c379a0000000000000000000000000000000000000000000000000000000008152600401615bfd9061a1c1565b60405180910390fd5b615c1a67444929cf0a4a240e60c01b6144a3565b615c2e67c1872b0959542d0a60c01b6144a3565b615c4267f67429e4a158b48960c01b6144a3565b615c566746d5be2f6403986c60c01b6144a3565b898988615c6d674a5ad399ce61b83d60c01b6144a3565b615c81678d70ba25121eafdb60c01b6144a3565b615c956716e32eba8655245d60c01b6144a3565b615ca967d034f09e08adf8f860c01b6144a3565b615cb4838383617870565b615cf3576040517f08c379a0000000000000000000000000000000000000000000000000000000008152600401615cea90619fc1565b60405180910390fd5b615d0767fe2150dcc2536c5660c01b6144a3565b615d1b67154e7a39b17d25b560c01b6144a3565b615d2f674ce73c7483e682d360c01b6144a3565b615d436767383a89c8679e9560c01b6144a3565b615d5767348f4e710900419260c01b6144a3565b615d6b67c9191dded3cef01f60c01b6144a3565b615d768d8d8c617bb1565b615d8a6729754ad6c66154ed60c01b6144a3565b615d9e674bb2ad54f5219ffe60c01b6144a3565b7fdfd4ac8cb43d5458b7a6f74f2d6461d77d4985704bdbc2fd4c4816444bbfd5e08d8d33348f8f604051615dd796959493929190619e1b565b60405180910390a1615df3676499f087f20dde1c60c01b6144a3565b615e076781e73fc5c81e379860c01b6144a3565b615e118d8d617e09565b50505050505050505050505050565b6000615e36677e70fa815ae1adf260c01b6144a3565b615e4a676ecc78254811f84160c01b6144a3565b615e5e67309196b882da252b60c01b6144a3565b60008060008573ffffffffffffffffffffffffffffffffffffffff1673ffffffffffffffffffffffffffffffffffffffff168152602001908152602001600020600084815260200190815260200160002060010160109054906101000a90046fffffffffffffffffffffffffffffffff166fffffffffffffffffffffffffffffffff1611905092915050565b615efe6719c1e2e4e2e4f2bd60c01b6144a3565b615f126718fb7e8b27d5bcaf60c01b6144a3565b60008060008473ffffffffffffffffffffffffffffffffffffffff1673ffffffffffffffffffffffffffffffffffffffff168152602001908152602001600020600083815260200190815260200160002060000160106101000a8154816fffffffffffffffffffffffffffffffff02191690836fffffffffffffffffffffffffffffffff160217905550615fb0674d971446f04e9f2b60c01b6144a3565b60008060008473ffffffffffffffffffffffffffffffffffffffff1673ffffffffffffffffffffffffffffffffffffffff168152602001908152602001600020600083815260200190815260200160002060010160006101000a8154816fffffffffffffffffffffffffffffffff02191690836fffffffffffffffffffffffffffffffff16021790555061604e67813269d8a305e17060c01b6144a3565b60008060008473ffffffffffffffffffffffffffffffffffffffff1673ffffffffffffffffffffffffffffffffffffffff168152602001908152602001600020600083815260200190815260200160002060000160086101000a81548167ffffffffffffffff021916908367ffffffffffffffff1602179055506160dc67be1d53bbc663abab60c01b6144a3565b60008060008473ffffffffffffffffffffffffffffffffffffffff1673ffffffffffffffffffffffffffffffffffffffff168152602001908152602001600020600083815260200190815260200160002060000160046101000a81548163ffffffff021916908363ffffffff16021790555061616267561dad1138d4976a60c01b6144a3565b60008060008473ffffffffffffffffffffffffffffffffffffffff1673ffffffffffffffffffffffffffffffffffffffff168152602001908152602001600020600083815260200190815260200160002060000160006101000a81548163ffffffff021916908363ffffffff1602179055506161e8671282685d699ca0da60c01b6144a3565b60008060008473ffffffffffffffffffffffffffffffffffffffff1673ffffffffffffffffffffffffffffffffffffffff168152602001908152602001600020600083815260200190815260200160002060030160006101000a81548173ffffffffffffffffffffffffffffffffffffffff021916908373ffffffffffffffffffffffffffffffffffffffff16021790555061628e675a22bb2b3dc5e95e60c01b6144a3565b60008060008473ffffffffffffffffffffffffffffffffffffffff1673ffffffffffffffffffffffffffffffffffffffff168152602001908152602001600020600083815260200190815260200160002060040160006101000a81548173ffffffffffffffffffffffffffffffffffffffff021916908373ffffffffffffffffffffffffffffffffffffffff16021790555061633467f277cd85d10f4a6e60c01b6144a3565b60008060008473ffffffffffffffffffffffffffffffffffffffff1673ffffffffffffffffffffffffffffffffffffffff168152602001908152602001600020600083815260200190815260200160002060060160006101000a81548173ffffffffffffffffffffffffffffffffffffffff021916908373ffffffffffffffffffffffffffffffffffffffff1602179055505050565b6163de676d847b7b630e82b560c01b6144a3565b6163f26705d6737b6ab0b24960c01b6144a3565b61640667269ce1a334329ff260c01b6144a3565b61641587878787878787617fdb565b61642967b6157dfd6108fda260c01b6144a3565b61643d678df69cf6ea52e5aa60c01b6144a3565b7f3379e969de5522101a0f0912ffe00daf15361dbcbf9cd5c328e0dd97aa25cdf987873388888861646e8e8e616ff1565b6164788f8f618801565b8a8a6040516164909a99989796959493929190619d10565b60405180910390a16164ac67377e322909838e7460c01b6144a3565b6164c06781e79e627c8e707760c01b6144a3565b6164ca8787617e09565b50505050505050565b6164e7678e5054facbc8759460c01b6144a3565b815181516164ff67dc943db60533331060c01b6144a3565b61651367c4b9ad8e04887a8c60c01b6144a3565b616527674cca6a7706fd8c1a60c01b6144a3565b61653b670b5d539c2257f3ab60c01b6144a3565b80821461657d576040517f08c379a00000000000000000000000000000000000000000000000000000000081526004016165749061a1a1565b60405180910390fd5b616591672ef9e212f5ff42af60c01b6144a3565b6165a5673e798d228706764960c01b6144a3565b6165b9671f16b8a01860d20e60c01b6144a3565b6165cd67bd5fbc267c689ca260c01b6144a3565b826165e26736d7e89f77f6636a60c01b6144a3565b6165f6670ce40ed9d9e5e1fb60c01b6144a3565b61660a670c7d5b8aa558c12660c01b6144a3565b600061662067625ec1da3df2be2560c01b6144a3565b61663467e916287a37e0737860c01b6144a3565b60005b825181101561668f57616654672bd2b8d4eb367fe260c01b6144a3565b8281815181106166675761666661a7c7565b5b60200260200101518261667a919061a4a3565b915080806166879061a720565b915050616637565b506166a467a92c5da32e77a79460c01b6144a3565b6166b867d85dcc18b3ca356e60c01b6144a3565b6166cc67548d9086d66f3ca560c01b6144a3565b6127108163ffffffff161115616717576040517f08c379a000000000000000000000000000000000000000000000000000000000815260040161670e9061a101565b60405180910390fd5b61672b672e2d1a3e85c96b7f60c01b6144a3565b61673f679b4c0b91c9cd00d760c01b6144a3565b61675367ed129135f47cc79160c01b6144a3565b616767673445c290c9ef675d60c01b6144a3565b61677b6735b55fba42407d3460c01b6144a3565b61678f679a69418a581665d560c01b6144a3565b600073ffffffffffffffffffffffffffffffffffffffff168973ffffffffffffffffffffffffffffffffffffffff1614616881576167d76726e2b1ca11d1813b60c01b6144a3565b6167eb678cd8d079a8f739b160c01b6144a3565b886000808d73ffffffffffffffffffffffffffffffffffffffff1673ffffffffffffffffffffffffffffffffffffffff16815260200190815260200160002060008c815260200190815260200160002060060160006101000a81548173ffffffffffffffffffffffffffffffffffffffff021916908373ffffffffffffffffffffffffffffffffffffffff160217905550616896565b616895671df2f722557929c260c01b6144a3565b5b6168aa673d6245429c1921cf60c01b6144a3565b856000808d73ffffffffffffffffffffffffffffffffffffffff1673ffffffffffffffffffffffffffffffffffffffff16815260200190815260200160002060008c81526020019081526020016000206007019080519060200190616910929190618e88565b5061692567ab589da4d36a943160c01b6144a3565b846000808d73ffffffffffffffffffffffffffffffffffffffff1673ffffffffffffffffffffffffffffffffffffffff16815260200190815260200160002060008c8152602001908152602001600020600801908051906020019061698b929190618f12565b506169a06733f470078120a58d60c01b6144a3565b876000808d73ffffffffffffffffffffffffffffffffffffffff1673ffffffffffffffffffffffffffffffffffffffff16815260200190815260200160002060008c815260200190815260200160002060010160006101000a8154816fffffffffffffffffffffffffffffffff02191690836fffffffffffffffffffffffffffffffff160217905550616a3d6725ed170714493e9f60c01b6144a3565b866000808d73ffffffffffffffffffffffffffffffffffffffff1673ffffffffffffffffffffffffffffffffffffffff16815260200190815260200160002060008c815260200190815260200160002060040160006101000a81548173ffffffffffffffffffffffffffffffffffffffff021916908373ffffffffffffffffffffffffffffffffffffffff160217905550616ae267fd6855a742b9d8a060c01b6144a3565b336000808d73ffffffffffffffffffffffffffffffffffffffff1673ffffffffffffffffffffffffffffffffffffffff16815260200190815260200160002060008c815260200190815260200160002060030160006101000a81548173ffffffffffffffffffffffffffffffffffffffff021916908373ffffffffffffffffffffffffffffffffffffffff1602179055505050505050505050505050565b6000616b966742713ce8a318ba7960c01b6144a3565b616baa67e35c8fdf0978598c60c01b6144a3565b616bbe674dde13cce3191ed860c01b6144a3565b616bc883836158e7565b158015616be55750616be4670c671a0c0fe2a66260c01b614cff565b5b80616c125750616bf5838361897b565b8015616c115750616c1067e86798190f1b088f60c01b614cff565b5b5b905092915050565b6000616c3067daf99103fe7ebb1160c01b6144a3565b616c44675734af13f4191ca560c01b6144a3565b616c58678be8831726fad02060c01b6144a3565b60008060008573ffffffffffffffffffffffffffffffffffffffff1673ffffffffffffffffffffffffffffffffffffffff168152602001908152602001600020600084815260200190815260200160002060010160009054906101000a90046fffffffffffffffffffffffffffffffff169050616cdf672e5c028d8453fa2e60c01b6144a3565b616cf2667b90ba7ea4f98260c01b6144a3565b6000816fffffffffffffffffffffffffffffffff16118015616da65750806fffffffffffffffffffffffffffffffff166000808673ffffffffffffffffffffffffffffffffffffffff1673ffffffffffffffffffffffffffffffffffffffff168152602001908152602001600020600085815260200190815260200160002060010160109054906101000a90046fffffffffffffffffffffffffffffffff166fffffffffffffffffffffffffffffffff1610155b91505092915050565b616dc367ff63f9bf65054a6660c01b6144a3565b616dd7672ac88ad82422f6d660c01b6144a3565b616deb67ac893d7950a0540660c01b6144a3565b60008060008473ffffffffffffffffffffffffffffffffffffffff1673ffffffffffffffffffffffffffffffffffffffff168152602001908152602001600020600083815260200190815260200160002060020160009054906101000a900473ffffffffffffffffffffffffffffffffffffffff169050616e766756e59f1f21876acc60c01b6144a3565b616e8a67b994caf05ba7c8fb60c01b6144a3565b60008060008573ffffffffffffffffffffffffffffffffffffffff1673ffffffffffffffffffffffffffffffffffffffff168152602001908152602001600020600084815260200190815260200160002060010160109054906101000a90046fffffffffffffffffffffffffffffffff169050616f116721055a017f702cbb60c01b6144a3565b616f25677396a792e082c4e760c01b6144a3565b616f2f84846145fc565b616f4367873ef347ab601f7860c01b6144a3565b616f5767052fe81cf9aae32960c01b6144a3565b616f75848484846fffffffffffffffffffffffffffffffff166147fe565b50505050565b6000616f916726538a5a81aefd7060c01b6144a3565b616fa5674af8127cbf1b035b60c01b6144a3565b616fb967aa0bd250b3a50d9860c01b6144a3565b600073ffffffffffffffffffffffffffffffffffffffff168273ffffffffffffffffffffffffffffffffffffffff1614159050919050565b600061700767f3ff1d6f907fa94260c01b6144a3565b61701b6767efc082e015655360c01b6144a3565b61702f67d966ffd5222775f260c01b6144a3565b60008060008573ffffffffffffffffffffffffffffffffffffffff1673ffffffffffffffffffffffffffffffffffffffff168152602001908152602001600020600084815260200190815260200160002060000160049054906101000a900463ffffffff1690506170aa67158eff9b4545af7b60c01b6144a3565b6170be67f59c8ace87dcb42e60c01b6144a3565b60008163ffffffff161415617124576170e1670a79a3911c6286c460c01b6144a3565b6170f5678b220478ae13be8260c01b6144a3565b617109679e2854bd30b7d7b160c01b6144a3565b6002600c9054906101000a900463ffffffff16915050617165565b617138677392793a6404fd1760c01b6144a3565b61714c6750984a76f951b00d60c01b6144a3565b6171606746317c6147718f8f60c01b6144a3565b809150505b92915050565b6000617181676f4db0ee543558b060c01b6144a3565b61719567c33ba4281080cead60c01b6144a3565b6171a967646e8374842dfa0b60c01b6144a3565b60008060008573ffffffffffffffffffffffffffffffffffffffff1673ffffffffffffffffffffffffffffffffffffffff168152602001908152602001600020600084815260200190815260200160002060050160009054906101000a900473ffffffffffffffffffffffffffffffffffffffff16905061723467a3cd6cc5a53651c660c01b6144a3565b61724867f2ce5854f3b5c2dc60c01b6144a3565b600073ffffffffffffffffffffffffffffffffffffffff168173ffffffffffffffffffffffffffffffffffffffff1614156173345761729167865bfe69b8c24e9d60c01b6144a3565b6172a567fe2d5f9ce3cfc4ee60c01b6144a3565b6172b967ee0b3b2e9790692260c01b6144a3565b6000808573ffffffffffffffffffffffffffffffffffffffff1673ffffffffffffffffffffffffffffffffffffffff168152602001908152602001600020600084815260200190815260200160002060020160009054906101000a900473ffffffffffffffffffffffffffffffffffffffff16915050617375565b61734867c1d8852daa20991960c01b6144a3565b61735c677e1a215b2c2a0dde60c01b6144a3565b617370678cd778a355bc68f060c01b6144a3565b809150505b92915050565b61738f67e4eef33a6e11823060c01b6144a3565b6173a36774b4884ed6c0fd3360c01b6144a3565b6173b7674c84e2e53ae334b760c01b6144a3565b60006173cd675d991932801af2bb60c01b6144a3565b6173e1676f303bd590200dc360c01b6144a3565b60005b6000808773ffffffffffffffffffffffffffffffffffffffff1673ffffffffffffffffffffffffffffffffffffffff1681526020019081526020016000206000868152602001908152602001600020600701805490508110156175fe5761745567d9f89382ab5c3cbf60c01b6144a3565b6174696777aea55e3afb58e460c01b6144a3565b6000617504846000808a73ffffffffffffffffffffffffffffffffffffffff1673ffffffffffffffffffffffffffffffffffffffff168152602001908152602001600020600089815260200190815260200160002060080184815481106174d3576174d261a7c7565b5b90600052602060002090600891828204019190066004029054906101000a900463ffffffff1663ffffffff16614d0a565b905061751a67ae2fc33fe4f6b8dc60c01b6144a3565b8083617526919061a44d565b925061753c67e303bebbb338726f60c01b6144a3565b617550674b0a8c7e4283e61c60c01b6144a3565b6175ea87876000808b73ffffffffffffffffffffffffffffffffffffffff1673ffffffffffffffffffffffffffffffffffffffff16815260200190815260200160002060008a815260200190815260200160002060070185815481106175b9576175b861a7c7565b5b9060005260206000200160009054906101000a900473ffffffffffffffffffffffffffffffffffffffff16846147fe565b5080806175f69061a720565b9150506173e4565b5061761367221206f1842af2f060c01b6144a3565b61762767605659db9122379e60c01b6144a3565b61763e8585858486617639919061a621565b6147fe565b5050505050565b600061765b67d04ef0db4fde04fb60c01b6144a3565b61766f67634267f52a41f5da60c01b6144a3565b617683674e0ef144dbc8f45560c01b6144a3565b60008060008773ffffffffffffffffffffffffffffffffffffffff1673ffffffffffffffffffffffffffffffffffffffff168152602001908152602001600020600086815260200190815260200160002060060160009054906101000a900473ffffffffffffffffffffffffffffffffffffffff16905061770e67656ea9862406b0a660c01b6144a3565b61772267a59aada9c53da0e960c01b6144a3565b61772b81616f7b565b156177cd5761774467f9857748f4a733cc60c01b6144a3565b6177586771efdc6395df710760c01b6144a3565b61776c67a28a10524c0f01be60c01b6144a3565b6000341480156177a757508373ffffffffffffffffffffffffffffffffffffffff168173ffffffffffffffffffffffffffffffffffffffff16145b80156177c557506000836fffffffffffffffffffffffffffffffff16115b915050617868565b6177e16739aeefca32f1aa3860c01b6144a3565b6177f56726228ff429edc07c60c01b6144a3565b617809671c9b6938a856409860c01b6144a3565b600034141580156178465750600073ffffffffffffffffffffffffffffffffffffffff168473ffffffffffffffffffffffffffffffffffffffff16145b801561786457506000836fffffffffffffffffffffffffffffffff16145b9150505b949350505050565b600061788667f1ed3aff53f76a4d60c01b6144a3565b61789a67f75a1505529f920a60c01b6144a3565b6178ae67977a7787f0b5b95260c01b6144a3565b60008060008673ffffffffffffffffffffffffffffffffffffffff1673ffffffffffffffffffffffffffffffffffffffff168152602001908152602001600020600085815260200190815260200160002060010160009054906101000a90046fffffffffffffffffffffffffffffffff16905061793567d8c7fd635b88edb260c01b6144a3565b61794967ca29d5b93ce19cf360c01b6144a3565b6000816fffffffffffffffffffffffffffffffff161180156179e45750806fffffffffffffffffffffffffffffffff163410158015617998575061799767d3256e8d2e980d7a60c01b614cff565b5b806179e35750806fffffffffffffffffffffffffffffffff16836fffffffffffffffffffffffffffffffff16101580156179e257506179e167bf387e57c0ed88ca60c01b614cff565b5b5b5b15617a2f576179fd6707b965aa26fe18b460c01b6144a3565b617a1167630a1e123bab0b5660c01b6144a3565b617a25674c3a3b5bfeaa58e460c01b6144a3565b6001915050617baa565b617a4367786aa569486f6e2a60c01b6144a3565b617a576720efb65837d397d060c01b6144a3565b617a6b677ec2b6e52871825060c01b6144a3565b6000612710617a7a8787618801565b612710617a87919061a4a3565b63ffffffff166000808973ffffffffffffffffffffffffffffffffffffffff1673ffffffffffffffffffffffffffffffffffffffff168152602001908152602001600020600088815260200190815260200160002060010160109054906101000a90046fffffffffffffffffffffffffffffffff16617b06919061a57d565b617b10919061a51b565b6fffffffffffffffffffffffffffffffff169050617b386738b16cb01d98437260c01b6144a3565b617b4c67c85cc7764c5244b360c01b6144a3565b803410158015617b6c5750617b6b6723d3201936acd87960c01b614cff565b5b80617ba5575080846fffffffffffffffffffffffffffffffff1610158015617ba45750617ba367052a9c01e13f2a6960c01b614cff565b5b5b925050505b9392505050565b617bc56740d20229f758265760c01b6144a3565b617bd967f17791965a15a29860c01b6144a3565b617bed67e0b407e1f22c0acc60c01b6144a3565b60008060008573ffffffffffffffffffffffffffffffffffffffff1673ffffffffffffffffffffffffffffffffffffffff168152602001908152602001600020600084815260200190815260200160002060020160009054906101000a900473ffffffffffffffffffffffffffffffffffffffff169050617c786725a29c37250f7c3f60c01b6144a3565b617c8c6710689fe353c570f760c01b6144a3565b60008060008673ffffffffffffffffffffffffffffffffffffffff1673ffffffffffffffffffffffffffffffffffffffff168152602001908152602001600020600085815260200190815260200160002060010160109054906101000a90046fffffffffffffffffffffffffffffffff166fffffffffffffffffffffffffffffffff169050617d256783384c5d86067c7960c01b6144a3565b617d3967aa21fd668364fb5860c01b6144a3565b617d44858585618ad4565b617d586729232398eac73a8d60c01b6144a3565b617d6c67a0d248bd7d451a6d60c01b6144a3565b600073ffffffffffffffffffffffffffffffffffffffff168273ffffffffffffffffffffffffffffffffffffffff1614617ded57617db4674000da1e639d7c3d60c01b6144a3565b617dc8679b6c19f89c0a2ac460c01b6144a3565b617ddc67d552c22e27d3dcf060c01b6144a3565b617de8858584846147fe565b617e02565b617e016776296bb2f09aa4bd60c01b6144a3565b5b5050505050565b617e1d671a595dee5c1ea72360c01b6144a3565b617e31673c5c89bfac16d56960c01b6144a3565b617e4567b0d96ff78aa0ce8860c01b6144a3565b617e4f8282616c1a565b15617ef957617e686716fc30dc646ea81860c01b6144a3565b617e7c6725a14b0ae2a72c4a60c01b6144a3565b617e906788a1c1a70a867cd660c01b6144a3565b617e9a8282614d69565b617eae670b72f9d278484f4e60c01b6144a3565b617ec267bfd9250ad0b457bb60c01b6144a3565b617ecc8282615512565b617ee067302c40569e355a7a60c01b6144a3565b617ef46716d1ebab1125a4d560c01b6144a3565b617fd7565b617f0d677c444b64c8c1e85860c01b6144a3565b617f21676f9cb40b1d78536460c01b6144a3565b617f35674299e30012182ea960c01b6144a3565b617f3f8282614b69565b15617fc157617f586767ad8aa3ca938e3260c01b6144a3565b617f6c6787cb73903065b9db60c01b6144a3565b617f8067857d9f3f7b23132c60c01b6144a3565b617f8a8282614d69565b617f9e67c133d422c381559a60c01b6144a3565b617fb26722443f73c1f754d460c01b6144a3565b617fbc8282615256565b617fd6565b617fd5679953305018da64ca60c01b6144a3565b5b5b5050565b617fef67eac0832a1fc9375860c01b6144a3565b82846180056728816f0d48f35d2e60c01b6144a3565b6180196782914abca32f0f1660c01b6144a3565b61802d67216704f822748ad660c01b6144a3565b618041670b3188a4083de0b360c01b6144a3565b6000826fffffffffffffffffffffffffffffffff1614801561807357506180726783067300cd6a570960c01b614cff565b5b806180df5750806fffffffffffffffffffffffffffffffff166180c0836fffffffffffffffffffffffffffffffff16600260089054906101000a900463ffffffff1663ffffffff16614d0a565b101580156180de57506180dd675853d4a448b3c90e60c01b614cff565b5b5b61811e576040517f08c379a00000000000000000000000000000000000000000000000000000000081526004016181159061a081565b60405180910390fd5b61813267d333571a3698f89c60c01b6144a3565b61814667c4c869c9e4aeba3960c01b6144a3565b61815a67771460a0b1896a7860c01b6144a3565b61816e67b0cc6d8e340706e960c01b6144a3565b8351835161818667dc943db60533331060c01b6144a3565b61819a67c4b9ad8e04887a8c60c01b6144a3565b6181ae674cca6a7706fd8c1a60c01b6144a3565b6181c2670b5d539c2257f3ab60c01b6144a3565b808214618204576040517f08c379a00000000000000000000000000000000000000000000000000000000081526004016181fb9061a1a1565b60405180910390fd5b618218672ef9e212f5ff42af60c01b6144a3565b61822c673e798d228706764960c01b6144a3565b61824067c8a2d16c18852e8360c01b6144a3565b61825467e0b973429cac037160c01b6144a3565b846182696736d7e89f77f6636a60c01b6144a3565b61827d670ce40ed9d9e5e1fb60c01b6144a3565b618291670c7d5b8aa558c12660c01b6144a3565b60006182a767625ec1da3df2be2560c01b6144a3565b6182bb67e916287a37e0737860c01b6144a3565b60005b8251811015618316576182db672bd2b8d4eb367fe260c01b6144a3565b8281815181106182ee576182ed61a7c7565b5b602002602001015182618301919061a4a3565b9150808061830e9061a720565b9150506182be565b5061832b67a92c5da32e77a79460c01b6144a3565b61833f67d85dcc18b3ca356e60c01b6144a3565b61835367548d9086d66f3ca560c01b6144a3565b6127108163ffffffff16111561839e576040517f08c379a00000000000000000000000000000000000000000000000000000000081526004016183959061a101565b60405180910390fd5b6183b2672e2d1a3e85c96b7f60c01b6144a3565b6183c6679b4c0b91c9cd00d760c01b6144a3565b6183da677813cddad591044660c01b6144a3565b6183ee67123be165c19fafb760c01b6144a3565b6184026708ad909d3ac5950660c01b6144a3565b61841667b78004e80b5ab7d360c01b6144a3565b600073ffffffffffffffffffffffffffffffffffffffff168b73ffffffffffffffffffffffffffffffffffffffff16146185085761845e673146157b9ea92c2960c01b6144a3565b618472674c56091a184455ee60c01b6144a3565b8a6000808f73ffffffffffffffffffffffffffffffffffffffff1673ffffffffffffffffffffffffffffffffffffffff16815260200190815260200160002060008e815260200190815260200160002060060160006101000a81548173ffffffffffffffffffffffffffffffffffffffff021916908373ffffffffffffffffffffffffffffffffffffffff16021790555061851d565b61851c67520977586bb7171d60c01b6144a3565b5b618531675f4871c5d80b4aa960c01b6144a3565b876000808f73ffffffffffffffffffffffffffffffffffffffff1673ffffffffffffffffffffffffffffffffffffffff16815260200190815260200160002060008e81526020019081526020016000206007019080519060200190618597929190618e88565b506185ac67c6b38a62a4152df860c01b6144a3565b866000808f73ffffffffffffffffffffffffffffffffffffffff1673ffffffffffffffffffffffffffffffffffffffff16815260200190815260200160002060008e81526020019081526020016000206008019080519060200190618612929190618f12565b506186276710e9767966df270360c01b6144a3565b886000808f73ffffffffffffffffffffffffffffffffffffffff1673ffffffffffffffffffffffffffffffffffffffff16815260200190815260200160002060008e815260200190815260200160002060010160006101000a8154816fffffffffffffffffffffffffffffffff02191690836fffffffffffffffffffffffffffffffff1602179055506186c46776f440ef50c3d01160c01b6144a3565b896000808f73ffffffffffffffffffffffffffffffffffffffff1673ffffffffffffffffffffffffffffffffffffffff16815260200190815260200160002060008e815260200190815260200160002060000160106101000a8154816fffffffffffffffffffffffffffffffff02191690836fffffffffffffffffffffffffffffffff1602179055506187616753d0ff5aa71e80e360c01b6144a3565b336000808f73ffffffffffffffffffffffffffffffffffffffff1673ffffffffffffffffffffffffffffffffffffffff16815260200190815260200160002060008e815260200190815260200160002060030160006101000a81548173ffffffffffffffffffffffffffffffffffffffff021916908373ffffffffffffffffffffffffffffffffffffffff16021790555050505050505050505050505050565b6000618817676305a89e6ed6667d60c01b6144a3565b61882b67572b2e98a0a194df60c01b6144a3565b61883f670bf3a965441d278860c01b6144a3565b60008060008573ffffffffffffffffffffffffffffffffffffffff1673ffffffffffffffffffffffffffffffffffffffff168152602001908152602001600020600084815260200190815260200160002060000160009054906101000a900463ffffffff1690506188ba67c527f8245974963760c01b6144a3565b6188ce67d44155832c25add960c01b6144a3565b60008163ffffffff161415618934576188f167efd1e9d7a7d2cae060c01b6144a3565b61890567879c97016c833b2460c01b6144a3565b618919677090bc8267e81ce360c01b6144a3565b600260009054906101000a900463ffffffff16915050618975565b61894867546ac56cd5dbb25d60c01b6144a3565b61895c67a7294aa9e7f1a68260c01b6144a3565b61897067f12e2c0205e4c23060c01b6144a3565b809150505b92915050565b600061899167c7c2d26e6fe8b51060c01b6144a3565b6189a56775e5ce94e16d0f3d60c01b6144a3565b6189b967c5cc51ff0374180d60c01b6144a3565b6000808473ffffffffffffffffffffffffffffffffffffffff1673ffffffffffffffffffffffffffffffffffffffff168152602001908152602001600020600083815260200190815260200160002060040160009054906101000a900473ffffffffffffffffffffffffffffffffffffffff1673ffffffffffffffffffffffffffffffffffffffff166000808573ffffffffffffffffffffffffffffffffffffffff1673ffffffffffffffffffffffffffffffffffffffff168152602001908152602001600020600084815260200190815260200160002060020160009054906101000a900473ffffffffffffffffffffffffffffffffffffffff1673ffffffffffffffffffffffffffffffffffffffff1614905092915050565b618ae867cd0c7f76aa505eae60c01b6144a3565b618afc679dbbe07606f2b17f60c01b6144a3565b618b106751e238d60f97c2aa60c01b6144a3565b60008060008573ffffffffffffffffffffffffffffffffffffffff1673ffffffffffffffffffffffffffffffffffffffff168152602001908152602001600020600084815260200190815260200160002060060160009054906101000a900473ffffffffffffffffffffffffffffffffffffffff169050618b9b67ae5a002c608b69b660c01b6144a3565b618baf67c1d93b1ed7835cbf60c01b6144a3565b618bb881616f7b565b15618d2b57618bd167302592d291317a5360c01b6144a3565b618be5671f8fb7826f5662a760c01b6144a3565b618bf9675f862a0f3fdb012960c01b6144a3565b8073ffffffffffffffffffffffffffffffffffffffff166323b872dd3330856040518463ffffffff1660e01b8152600401618c3693929190619bb6565b602060405180830381600087803b158015618c5057600080fd5b505af1158015618c64573d6000803e3d6000fd5b505050506040513d601f19601f82011682018060405250810190618c889190619644565b50618c9d67aefb29d1cd36984160c01b6144a3565b816000808673ffffffffffffffffffffffffffffffffffffffff1673ffffffffffffffffffffffffffffffffffffffff168152602001908152602001600020600085815260200190815260200160002060010160106101000a8154816fffffffffffffffffffffffffffffffff02191690836fffffffffffffffffffffffffffffffff160217905550618ddd565b618d3f670d3312a2f59e87de60c01b6144a3565b618d5367def8129ff2312edf60c01b6144a3565b346000808673ffffffffffffffffffffffffffffffffffffffff1673ffffffffffffffffffffffffffffffffffffffff168152602001908152602001600020600085815260200190815260200160002060010160106101000a8154816fffffffffffffffffffffffffffffffff02191690836fffffffffffffffffffffffffffffffff1602179055505b618df167a362d7f072ca13da60c01b6144a3565b336000808673ffffffffffffffffffffffffffffffffffffffff1673ffffffffffffffffffffffffffffffffffffffff168152602001908152602001600020600085815260200190815260200160002060020160006101000a81548173ffffffffffffffffffffffffffffffffffffffff021916908373ffffffffffffffffffffffffffffffffffffffff16021790555050505050565b828054828255906000526020600020908101928215618f01579160200282015b82811115618f005782518260006101000a81548173ffffffffffffffffffffffffffffffffffffffff021916908373ffffffffffffffffffffffffffffffffffffffff16021790555091602001919060010190618ea8565b5b509050618f0e9190618fc2565b5090565b82805482825590600052602060002090600701600890048101928215618fb15791602002820160005b83821115618f7f57835183826101000a81548163ffffffff021916908363ffffffff1602179055509260200192600401602081600301049283019260010302618f3b565b8015618faf5782816101000a81549063ffffffff0219169055600401602081600301049283019260010302618f7f565b505b509050618fbe9190618fc2565b5090565b5b80821115618fdb576000816000905550600101618fc3565b5090565b6000618ff2618fed8461a367565b61a342565b905080838252602082019050828560208602820111156190155761901461a82a565b5b60005b85811015619045578161902b88826190bf565b845260208401935060208301925050600181019050619018565b5050509392505050565b600061906261905d8461a393565b61a342565b905080838252602082019050828560208602820111156190855761908461a82a565b5b60005b858110156190b5578161909b8882619184565b845260208401935060208301925050600181019050619088565b5050509392505050565b6000813590506190ce8161ac77565b92915050565b6000815190506190e38161ac77565b92915050565b600082601f8301126190fe576190fd61a825565b5b813561910e848260208601618fdf565b91505092915050565b600082601f83011261912c5761912b61a825565b5b813561913c84826020860161904f565b91505092915050565b6000815190506191548161ac8e565b92915050565b6000813590506191698161aca5565b92915050565b60008135905061917e8161acbc565b92915050565b6000813590506191938161acd3565b92915050565b6000602082840312156191af576191ae61a834565b5b60006191bd848285016190d4565b91505092915050565b600080604083850312156191dd576191dc61a834565b5b60006191eb858286016190bf565b92505060206191fc8582860161916f565b9150509250929050565b60008060006060848603121561921f5761921e61a834565b5b600061922d868287016190bf565b935050602061923e8682870161916f565b925050604061924f868287016190bf565b9150509250925092565b600080600080608085870312156192735761927261a834565b5b6000619281878288016190bf565b94505060206192928782880161916f565b93505060406192a3878288016190bf565b92505060606192b48782880161915a565b91505092959194509250565b600080600080600060a086880312156192dc576192db61a834565b5b60006192ea888289016190bf565b95505060206192fb8882890161916f565b945050604061930c888289016190bf565b935050606061931d8882890161915a565b925050608061932e888289016190bf565b9150509295509295909350565b600080600080600080600060e0888a03121561935a5761935961a834565b5b60006193688a828b016190bf565b97505060206193798a828b0161916f565b965050604061938a8a828b016190bf565b955050606061939b8a828b0161915a565b94505060806193ac8a828b016190bf565b93505060a088013567ffffffffffffffff8111156193cd576193cc61a82f565b5b6193d98a828b016190e9565b92505060c088013567ffffffffffffffff8111156193fa576193f961a82f565b5b6194068a828b01619117565b91505092959891949750929550565b600080600080600080600060e0888a0312156194345761943361a834565b5b60006194428a828b016190bf565b97505060206194538a828b0161916f565b96505060406194648a828b016190bf565b95505060606194758a828b0161915a565b94505060806194868a828b0161915a565b93505060a088013567ffffffffffffffff8111156194a7576194a661a82f565b5b6194b38a828b016190e9565b92505060c088013567ffffffffffffffff8111156194d4576194d361a82f565b5b6194e08a828b01619117565b91505092959891949750929550565b60008060008060008060008060006101208a8c0312156195125761951161a834565b5b60006195208c828d016190bf565b99505060206195318c828d0161916f565b98505060406195428c828d016190bf565b97505060606195538c828d0161915a565b96505060806195648c828d0161915a565b95505060a06195758c828d01619184565b94505060c06195868c828d01619184565b93505060e08a013567ffffffffffffffff8111156195a7576195a661a82f565b5b6195b38c828d016190e9565b9250506101008a013567ffffffffffffffff8111156195d5576195d461a82f565b5b6195e18c828d01619117565b9150509295985092959850929598565b60008060006060848603121561960a5761960961a834565b5b6000619618868287016190bf565b93505060206196298682870161916f565b925050604061963a8682870161915a565b9150509250925092565b60006020828403121561965a5761965961a834565b5b600061966884828501619145565b91505092915050565b600061967d83836196a1565b60208301905092915050565b60006196958383619b59565b60208301905092915050565b6196aa8161a655565b82525050565b6196b98161a655565b82525050565b60006196ca8261a3df565b6196d4818561a40f565b93506196df8361a3bf565b8060005b838110156197105781516196f78882619671565b97506197028361a3f5565b9250506001810190506196e3565b5085935050505092915050565b60006197288261a3ea565b619732818561a420565b935061973d8361a3cf565b8060005b8381101561976e5781516197558882619689565b97506197608361a402565b925050600181019050619741565b5085935050505092915050565b6000619788601a8361a43c565b91506197938261a84a565b602082019050919050565b60006197ab601f8361a43c565b91506197b68261a873565b602082019050919050565b60006197ce60208361a43c565b91506197d98261a89c565b602082019050919050565b60006197f160118361a43c565b91506197fc8261a8c5565b602082019050919050565b600061981460198361a43c565b915061981f8261a8ee565b602082019050919050565b6000619837601e8361a43c565b91506198428261a917565b602082019050919050565b600061985a60118361a43c565b91506198658261a940565b602082019050919050565b600061987d600f8361a43c565b91506198888261a969565b602082019050919050565b60006198a060138361a43c565b91506198ab8261a992565b602082019050919050565b60006198c360118361a43c565b91506198ce8261a9bb565b602082019050919050565b60006198e660168361a43c565b91506198f18261a9e4565b602082019050919050565b6000619909601d8361a43c565b91506199148261aa0d565b602082019050919050565b600061992c60168361a43c565b91506199378261aa36565b602082019050919050565b600061994f60208361a43c565b915061995a8261aa5f565b602082019050919050565b600061997260158361a43c565b915061997d8261aa88565b602082019050919050565b6000619995601e8361a43c565b91506199a08261aab1565b602082019050919050565b60006199b860168361a43c565b91506199c38261aada565b602082019050919050565b60006199db60178361a43c565b91506199e68261ab03565b602082019050919050565b60006199fe60138361a43c565b9150619a098261ab2c565b602082019050919050565b6000619a21600a8361a43c565b9150619a2c8261ab55565b602082019050919050565b6000619a4460008361a431565b9150619a4f8261ab7e565b600082019050919050565b6000619a6760198361a43c565b9150619a728261ab81565b602082019050919050565b6000619a8a60208361a43c565b9150619a958261abaa565b602082019050919050565b6000619aad601b8361a43c565b9150619ab88261abd3565b602082019050919050565b6000619ad060188361a43c565b9150619adb8261abfc565b602082019050919050565b6000619af3600f8361a43c565b9150619afe8261ac25565b602082019050919050565b6000619b16600d8361a43c565b9150619b218261ac4e565b602082019050919050565b619b358161a673565b82525050565b619b448161a6dd565b82525050565b619b538161a6af565b82525050565b619b628161a6b9565b82525050565b619b718161a6b9565b82525050565b619b808161a6c9565b82525050565b6000619b9182619a37565b9150819050919050565b6000602082019050619bb060008301846196b0565b92915050565b6000606082019050619bcb60008301866196b0565b619bd860208301856196b0565b619be56040830184619b3b565b949350505050565b6000606082019050619c0260008301866196b0565b619c0f60208301856196b0565b619c1c6040830184619b4a565b949350505050565b6000604082019050619c3960008301856196b0565b619c466020830184619b4a565b9392505050565b6000606082019050619c6260008301866196b0565b619c6f6020830185619b4a565b619c7c60408301846196b0565b949350505050565b600061010082019050619c9a600083018b6196b0565b619ca7602083018a619b4a565b619cb460408301896196b0565b619cc160608301886196b0565b619cce6080830187619b2c565b619cdb60a08301866196b0565b81810360c0830152619ced81856196bf565b905081810360e0830152619d01818461971d565b90509998505050505050505050565b600061014082019050619d26600083018d6196b0565b619d33602083018c619b4a565b619d40604083018b6196b0565b619d4d606083018a6196b0565b619d5a6080830189619b2c565b619d6760a0830188619b2c565b619d7460c0830187619b68565b619d8160e0830186619b68565b818103610100830152619d9481856196bf565b9050818103610120830152619da9818461971d565b90509b9a5050505050505050505050565b600060c082019050619dcf60008301896196b0565b619ddc6020830188619b4a565b619de960408301876196b0565b619df66060830186619b2c565b619e0360808301856196b0565b619e1060a08301846196b0565b979650505050505050565b600060c082019050619e3060008301896196b0565b619e3d6020830188619b4a565b619e4a60408301876196b0565b619e576060830186619b4a565b619e6460808301856196b0565b619e7160a0830184619b3b565b979650505050505050565b6000606082019050619e9160008301866196b0565b619e9e6020830185619b4a565b619eab6040830184619b2c565b949350505050565b6000606082019050619ec860008301866196b0565b619ed56020830185619b4a565b619ee26040830184619b3b565b949350505050565b6000606082019050619eff60008301866196b0565b619f0c6020830185619b4a565b619f196040830184619b77565b949350505050565b60006020820190508181036000830152619f3a8161977b565b9050919050565b60006020820190508181036000830152619f5a8161979e565b9050919050565b60006020820190508181036000830152619f7a816197c1565b9050919050565b60006020820190508181036000830152619f9a816197e4565b9050919050565b60006020820190508181036000830152619fba81619807565b9050919050565b60006020820190508181036000830152619fda8161982a565b9050919050565b60006020820190508181036000830152619ffa8161984d565b9050919050565b6000602082019050818103600083015261a01a81619870565b9050919050565b6000602082019050818103600083015261a03a81619893565b9050919050565b6000602082019050818103600083015261a05a816198b6565b9050919050565b6000602082019050818103600083015261a07a816198d9565b9050919050565b6000602082019050818103600083015261a09a816198fc565b9050919050565b6000602082019050818103600083015261a0ba8161991f565b9050919050565b6000602082019050818103600083015261a0da81619942565b9050919050565b6000602082019050818103600083015261a0fa81619965565b9050919050565b6000602082019050818103600083015261a11a81619988565b9050919050565b6000602082019050818103600083015261a13a816199ab565b9050919050565b6000602082019050818103600083015261a15a816199ce565b9050919050565b6000602082019050818103600083015261a17a816199f1565b9050919050565b6000602082019050818103600083015261a19a81619a14565b9050919050565b6000602082019050818103600083015261a1ba81619a5a565b9050919050565b6000602082019050818103600083015261a1da81619a7d565b9050919050565b6000602082019050818103600083015261a1fa81619aa0565b9050919050565b6000602082019050818103600083015261a21a81619ac3565b9050919050565b6000602082019050818103600083015261a23a81619ae6565b9050919050565b6000602082019050818103600083015261a25a81619b09565b9050919050565b600060208201905061a2766000830184619b4a565b92915050565b600060208201905061a2916000830184619b68565b92915050565b60006101608201905061a2ad600083018e619b68565b61a2ba602083018d619b68565b61a2c7604083018c619b77565b61a2d4606083018b619b2c565b61a2e1608083018a619b2c565b61a2ee60a0830189619b2c565b61a2fb60c08301886196b0565b61a30860e08301876196b0565b61a3166101008301866196b0565b61a3246101208301856196b0565b61a3326101408301846196b0565b9c9b505050505050505050505050565b600061a34c61a35d565b905061a358828261a6ef565b919050565b6000604051905090565b600067ffffffffffffffff82111561a3825761a38161a7f6565b5b602082029050602081019050919050565b600067ffffffffffffffff82111561a3ae5761a3ad61a7f6565b5b602082029050602081019050919050565b6000819050602082019050919050565b6000819050602082019050919050565b600081519050919050565b600081519050919050565b6000602082019050919050565b6000602082019050919050565b600082825260208201905092915050565b600082825260208201905092915050565b600081905092915050565b600082825260208201905092915050565b600061a4588261a6af565b915061a4638361a6af565b9250827fffffffffffffffffffffffffffffffffffffffffffffffffffffffffffffffff0382111561a4985761a49761a769565b5b828201905092915050565b600061a4ae8261a6b9565b915061a4b98361a6b9565b92508263ffffffff0382111561a4d25761a4d161a769565b5b828201905092915050565b600061a4e88261a6c9565b915061a4f38361a6c9565b92508267ffffffffffffffff0382111561a5105761a50f61a769565b5b828201905092915050565b600061a5268261a673565b915061a5318361a673565b92508261a5415761a54061a798565b5b828204905092915050565b600061a5578261a6af565b915061a5628361a6af565b92508261a5725761a57161a798565b5b828204905092915050565b600061a5888261a673565b915061a5938361a673565b9250816fffffffffffffffffffffffffffffffff048311821515161561a5bc5761a5bb61a769565b5b828202905092915050565b600061a5d28261a6af565b915061a5dd8361a6af565b9250817fffffffffffffffffffffffffffffffffffffffffffffffffffffffffffffffff048311821515161561a6165761a61561a769565b5b828202905092915050565b600061a62c8261a6af565b915061a6378361a6af565b92508282101561a64a5761a64961a769565b5b828203905092915050565b600061a6608261a68f565b9050919050565b60008115159050919050565b60006fffffffffffffffffffffffffffffffff82169050919050565b600073ffffffffffffffffffffffffffffffffffffffff82169050919050565b6000819050919050565b600063ffffffff82169050919050565b600067ffffffffffffffff82169050919050565b600061a6e88261a673565b9050919050565b61a6f88261a839565b810181811067ffffffffffffffff8211171561a7175761a71661a7f6565b5b80604052505050565b600061a72b8261a6af565b91507fffffffffffffffffffffffffffffffffffffffffffffffffffffffffffffffff82141561a75e5761a75d61a769565b5b600182019050919050565b7f4e487b7100000000000000000000000000000000000000000000000000000000600052601160045260246000fd5b7f4e487b7100000000000000000000000000000000000000000000000000000000600052601260045260246000fd5b7f4e487b7100000000000000000000000000000000000000000000000000000000600052603260045260246000fd5b7f4e487b7100000000000000000000000000000000000000000000000000000000600052604160045260246000fd5b600080fd5b600080fd5b600080fd5b600080fd5b6000601f19601f8301169050919050565b7f4f6e6c79207468652077686974656c6973746564206275796572000000000000600082015250565b7f42696420696e6372656173652070657263656e7461676520746f6f206c6f7700600082015250565b7f5468652061756374696f6e2068617320612076616c696420626964206d616465600082015250565b7f50726963652063616e6e6f742062652030000000000000000000000000000000600082015250565b7f4e6f74206170706c696361626c6520666f7220612073616c6500000000000000600082015250565b7f4e6f7420656e6f7567682066756e647320746f20626964206f6e204e46540000600082015250565b7f4e4654206e6f74206465706f7369746564000000000000000000000000000000600082015250565b7f4f6e6c79206e66742073656c6c65720000000000000000000000000000000000600082015250565b7f6e6674207472616e73666572206661696c656400000000000000000000000000600082015250565b7f41756374696f6e2068617320656e646564000000000000000000000000000000600082015250565b7f53656e64657220646f65736e2774206f776e204e465400000000000000000000600082015250565b7f4d696e5072696365203e20383025206f66206275794e6f775072696365000000600082015250565b7f6e6f206372656469747320746f20776974686472617700000000000000000000600082015250565b7f41756374696f6e20616c72656164792073746172746564206279206f776e6572600082015250565b7f43616e6e6f742077697468647261772066756e64730000000000000000000000600082015250565b7f4665652070657263656e746167657320657863656564206d6178696d756d0000600082015250565b7f53656c6c657220646f65736e2774206f776e204e465400000000000000000000600082015250565b7f41756374696f6e206973206e6f7420796574206f766572000000000000000000600082015250565b7f63616e6e6f74207061796f757420302062696400000000000000000000000000600082015250565b7f4e6f7420612073616c6500000000000000000000000000000000000000000000600082015250565b50565b7f526563697069656e747320213d2070657263656e746167657300000000000000600082015250565b7f42696420746f20626520696e207370656369666965642045524332302f457468600082015250565b7f4f776e65722063616e6e6f7420626964206f6e206f776e204e46540000000000600082015250565b7f43616e6e6f742073706563696679203020616464726573730000000000000000600082015250565b7f7769746864726177206661696c65640000000000000000000000000000000000600082015250565b7f4e6f74204e4654206f776e657200000000000000000000000000000000000000600082015250565b61ac808161a655565b811461ac8b57600080fd5b50565b61ac978161a667565b811461aca257600080fd5b50565b61acae8161a673565b811461acb957600080fd5b50565b61acc58161a6af565b811461acd057600080fd5b50565b61acdc8161a6b9565b811461ace757600080fd5b5056fea2646970667358221220cffd6735d2e196c8318b73d58f788931bb0c36a374730eb86968991903b34a6864736f6c63430008070033",
  "linkReferences": {},
  "deployedLinkReferences": {}
}