{
  "_format": "hh-sol-artifact-1",
  "contractName": "attackerContract",
  "sourceName": "contracts/attackerContract.sol",
  "abi": [
    {
      "inputs": [],
      "name": "balanceOfContract",
      "outputs": [
        {
          "internalType": "uint256",
          "name": "",
          "type": "uint256"
        }
      ],
      "stateMutability": "view",
      "type": "function"
    },
    {
      "inputs": [
        {
          "internalType": "address",
          "name": "_erc721",
          "type": "address"
        },
        {
          "internalType": "uint256",
          "name": "_token",
          "type": "uint256"
        },
        {
          "internalType": "uint256",
          "name": "_amount",
          "type": "uint256"
        }
      ],
      "name": "bidOnAuction",
      "outputs": [],
      "stateMutability": "nonpayable",
      "type": "function"
    },
    {
      "inputs": [],
      "name": "deposit",
      "outputs": [],
      "stateMutability": "payable",
      "type": "function"
    },
    {
      "inputs": [
        {
          "internalType": "address",
          "name": "_auctionContract",
          "type": "address"
        }
      ],
      "name": "setAuctionContract",
      "outputs": [],
      "stateMutability": "nonpayable",
      "type": "function"
    },
    {
      "inputs": [
        {
          "internalType": "bool",
          "name": "_req",
          "type": "bool"
        }
      ],
      "name": "setRequire",
      "outputs": [],
      "stateMutability": "nonpayable",
      "type": "function"
    },
    {
      "inputs": [],
      "name": "withdraw",
      "outputs": [],
      "stateMutability": "nonpayable",
      "type": "function"
    },
    {
      "inputs": [],
      "name": "withdrawFailed",
      "outputs": [],
      "stateMutability": "payable",
      "type": "function"
    },
    {
      "stateMutability": "payable",
      "type": "receive"
    }
  ],
  "bytecode": "0x608060405234801561001057600080fd5b50610ad7806100206000396000f3fe6080604052600436106100745760003560e01c806367b2cd051161004e57806367b2cd0514610212578063d0e30db01461021c578063e6c7c45614610226578063ea46d76c14610251576101a4565b8063023924c7146101a9578063269f5e7e146101d25780633ccfd60b146101fb576101a4565b366101a45761008d67ff8cdc1c7b775f3460c01b61027a565b3460008082825461009e91906108d9565b925050819055506100b9674aa956c43898daeb60c01b61027a565b6100cd67e1698d2642d89fef60c01b61027a565b600560009054906101000a900460ff1661011c576040517f08c379a00000000000000000000000000000000000000000000000000000000081526004016101139061088d565b60405180910390fd5b6101306799714dc297b0571460c01b61027a565b6101446726623962621f55a460c01b61027a565b600560019054906101000a900460ff1661018d5761016c676b400b407341bd8c60c01b61027a565b61018067a99aa367a51737a460c01b61027a565b61018861027d565b6101a2565b6101a167ff92104b0f2f18fc60c01b61027a565b5b005b600080fd5b3480156101b557600080fd5b506101d060048036038101906101cb9190610722565b61036e565b005b3480156101de57600080fd5b506101f960048036038101906101f491906107a2565b6103da565b005b34801561020757600080fd5b5061021061027d565b005b61021a61041f565b005b61022461050e565b005b34801561023257600080fd5b5061023b610550565b60405161024891906108ad565b60405180910390f35b34801561025d57600080fd5b506102786004803603810190610273919061074f565b610556565b005b50565b61029167f9076e62245ec94660c01b61027a565b6102a5676b0eba6ce4eba8cd60c01b61027a565b6102b96777554dd66e5b7feb60c01b61027a565b600160009054906101000a900473ffffffffffffffffffffffffffffffffffffffff1673ffffffffffffffffffffffffffffffffffffffff16634cb8ef5b600360009054906101000a900473ffffffffffffffffffffffffffffffffffffffff166002546040518363ffffffff1660e01b815260040161033a92919061081f565b600060405180830381600087803b15801561035457600080fd5b505af1158015610368573d6000803e3d6000fd5b50505050565b61038267d47d7f9ddfc6154a60c01b61027a565b6103966734a1f9ad6eadd37360c01b61027a565b80600160006101000a81548173ffffffffffffffffffffffffffffffffffffffff021916908373ffffffffffffffffffffffffffffffffffffffff16021790555050565b6103ee67b6f275954ffb405b60c01b61027a565b610402674d660363384a498c60c01b61027a565b80600560006101000a81548160ff02191690831515021790555050565b61043367c22e02853f68f14f60c01b61027a565b6104476764d6a948c1b5845d60c01b61027a565b6001600560016101000a81548160ff02191690831515021790555061047667b8cb206ec769459860c01b61027a565b61048a6755f413621be9f83760c01b61027a565b600160009054906101000a900473ffffffffffffffffffffffffffffffffffffffff1673ffffffffffffffffffffffffffffffffffffffff1663b6ad69146040518163ffffffff1660e01b8152600401600060405180830381600087803b1580156104f457600080fd5b505af1158015610508573d6000803e3d6000fd5b50505050565b61052267deee42a0245a435a60c01b61027a565b610536673d63071ae50012f960c01b61027a565b3460008082825461054791906108d9565b92505081905550565b60005481565b61056a67dd0563aa53b5b57c60c01b61027a565b61057e679a86f56fd87a991260c01b61027a565b6105926702885b4f4a4180b460c01b61027a565b600160009054906101000a900473ffffffffffffffffffffffffffffffffffffffff1673ffffffffffffffffffffffffffffffffffffffff1663c24d5a5c8285856000806040518663ffffffff1660e01b81526004016105f59493929190610848565b6000604051808303818588803b15801561060e57600080fd5b505af1158015610622573d6000803e3d6000fd5b505050505061063b679684a9fc2da99beb60c01b61027a565b82600360006101000a81548173ffffffffffffffffffffffffffffffffffffffff021916908373ffffffffffffffffffffffffffffffffffffffff16021790555061069067032265e9ec28c11260c01b61027a565b816002819055506106ab6723dc757eb061b6a360c01b61027a565b806004819055506106c6673ac83f8cfb6f1b3e60c01b61027a565b806000808282546106d7919061092f565b92505081905550505050565b6000813590506106f281610a5c565b92915050565b60008135905061070781610a73565b92915050565b60008135905061071c81610a8a565b92915050565b60006020828403121561073857610737610a08565b5b6000610746848285016106e3565b91505092915050565b60008060006060848603121561076857610767610a08565b5b6000610776868287016106e3565b93505060206107878682870161070d565b92505060406107988682870161070d565b9150509250925092565b6000602082840312156107b8576107b7610a08565b5b60006107c6848285016106f8565b91505092915050565b6107d881610963565b82525050565b6107e7816109c7565b82525050565b60006107fa6022836108c8565b915061080582610a0d565b604082019050919050565b610819816109bd565b82525050565b600060408201905061083460008301856107cf565b6108416020830184610810565b9392505050565b600060808201905061085d60008301876107cf565b61086a6020830186610810565b61087760408301856107cf565b61088460608301846107de565b95945050505050565b600060208201905081810360008301526108a6816107ed565b9050919050565b60006020820190506108c26000830184610810565b92915050565b600082825260208201905092915050565b60006108e4826109bd565b91506108ef836109bd565b9250827fffffffffffffffffffffffffffffffffffffffffffffffffffffffffffffffff03821115610924576109236109d9565b5b828201905092915050565b600061093a826109bd565b9150610945836109bd565b925082821015610958576109576109d9565b5b828203905092915050565b600061096e8261099d565b9050919050565b60008115159050919050565b60006fffffffffffffffffffffffffffffffff82169050919050565b600073ffffffffffffffffffffffffffffffffffffffff82169050919050565b6000819050919050565b60006109d282610981565b9050919050565b7f4e487b7100000000000000000000000000000000000000000000000000000000600052601160045260246000fd5b600080fd5b7f4361757365206661696c75726520746f20626c6f636b206e657874206269646460008201527f6572000000000000000000000000000000000000000000000000000000000000602082015250565b610a6581610963565b8114610a7057600080fd5b50565b610a7c81610975565b8114610a8757600080fd5b50565b610a93816109bd565b8114610a9e57600080fd5b5056fea2646970667358221220c91883ca67a2c29aa2bd9769e47d003941a44d2b9d9340a8e5eca591da21a1f364736f6c63430008070033",
  "linkReferences": {},
  "deployedLinkReferences": {}
}